:020000040800F2
:1000000008280020ED370008D9350008DB35000846
:10001000DD350008DF350008E1350008000000008C
:10002000000000000000000000000000E3350008B0
:10003000E535000800000000E7350008E935000854
:100040001138000815380008193800081D38000854
:100050002138000825380008293800082D38000804
:10006000313800083538000839380008F7350008FD
:100070003D38000841380008FD3500080336000807
:10008000093600080F360008153600084538000804
:10009000493800084D380008513800085538000824
:1000A000593800085D3800086138000865380008D4
:1000B000693800081B360008213600086D38000832
:1000C0007138000875380008793800087D38000854
:1000D00081380008273600083336000885380008C4
:1000E000893800088D3800089138000895380008D4
:1000F000993800089D380008A1380008A538000884
:10010000A9380008AD38000847360008B1380008A3
:10011000B5380008B9380008BD380008C1380008F3
:10012000C5380008C9380008CD380008D1380008A3
:1001300010B502460123107803E09BB2D45C604006
:100140005B1C9CB28C42F8D3C0B210BD80B5DFF806
:10015000800601214170B221017000214180C180DF
:1001600000F00DFADFF86C16487302BD38B504468E
:100170000A46A07AC8B90121A1725D212078507089
:1001800060789070E078D070A0781071E0881518D1
:10019000C01DA9712081C11E89B2501CFFF7C8FF84
:1001A000687101210020A1742075002032BD1CB5AA
:1001B00000680168CA060BD500200090DFF81846D9
:1001C00000F019F8606B01684868DFF810161BE052
:1001D00013BD1CB500680168CA060BD5002000904D
:1001E000DFF8FC4500F007F8606B01684868DFF84D
:1001F000F41509E013BD2068016800914068009083
:100200002046009900F0E6BBC0F50060488002B0CF
:10021000087840F0010001F8040B4FF4006220461A
:10022000BDE8104000F08DBB80B5DFF8AC0500F0F4
:100230001FF8DFF8B41500F084FBDFF8B01500F00C
:100240001FF8002002BD80B5DFF8940500F010F81B
:10025000DFF89C1500F075FBDFF8981500F010F83A
:1002600000220221DFF8900500F0B3FE002002BD5D
:100270000168CA6842F01002CA604FF40062704719
:100280005B2008705B21DFF8740501705D2141710E
:10029000704780B50A4601464FF6FF73DFF8380510
:1002A00000F0F6FA010018BF012002BDF8B50446BF
:1002B0000D461646DFF8407501220221384600F04F
:1002C00088FE33462A462146DFF8140500F0E0FA9E
:1002D000044600220221384600F07BFE2046F2BD93
:1002E000F8B5DFF8F8241078C10776D500F0FE00E5
:1002F0001070DFF8E044A07C002804BFE07C0028F8
:100300006BD1E588208A5188DFF8E034A84223D2F7
:1003100010B3002001E0401C80B288425DDA268ADA
:1003200002F1040E5F1D00EB060C1EF800E007F85A
:100330000CE0761C2682B6B2B542ECD1511D0E5CA3
:100340002671104480795D2838D100F0FDF886428E
:1003500042D10120E07440E0208900283DD1157988
:100360005B2D3BD1507900F0F005A02D04BF567AEB
:100370005D2E06D100F0DEF885422ED101202075D9
:100380002BE000F0BEF868B9907A5D2825D10720EF
:10039000557A208125710421581CFFF7C9FE85423A
:1003A000D7D019E0052501E06D1CADB28D4214DAFD
:1003B00000F0B7F8F8D100F09EF803D000202082BA
:1003C000E08009E0511DC01D4D5D2081C11E2571D9
:1003D00000F0BDF88542BCD0BCE00020F2BDF8B50D
:1003E000DFF800241078C1073BD500F0FE00107044
:1003F000DFF8DC43A07C002804BFE07C002878D133
:10040000E588208A5188DFF8EC33A8422AD248B325
:10041000002601E0761CB6B28E426ADA208A02F12A
:10042000040E5F1D06EB000C1EF806E007F80CE05A
:10043000401C87B2BD422082ECD1511D80B28F5D3D
:100440003018591D27710F54911D895D5D293DD1CB
:100450009E1D5D22325400F077F8874248D101207A
:10046000E07446E02089002843D115795B2D41D105
:10047000507900F0F005A02D04BF567A5D2E06D10C
:1004800000F058F8854234D10120207531E000F0A9
:1004900038F878B9907A5D282BD1557A5D719871CA
:1004A0002571072020810421581CFFF741FE854259
:1004B000D5D01DE0052501E06D1CADB28D4218DAE6
:1004C00000F02FF8F8D100F016F803D000202082B9
:1004D000E0800DE09E1CC01D7155511D4E5D591CE4
:1004E0004E552081C11E267100F031F88642B6D0EB
:1004F00030E00020F2BD02F10A01B6B2895D5D294B
:100500007047207096796670157AA570D779E77074
:100510001D7158709E70DF7005EB0725E580E0883F
:100520007047161D765D5E55268A761CB7B2B842B6
:1005300026827047E072032190792073D07960732E
:10054000501D157AA573F3E5ED1DE91E258189B2CD
:10055000581CEDE500202081F2BD38B50446E07C52
:1005600008B1002032BDA14D29462046FFF7FEFD0F
:1005700021892846BDE838404FF6FF7289E638B534
:100580009C4D04462946FFF7F1FD21892846BDE828
:1005900038404FF6FF7289E610B500F013F820716D
:1005A0004FF6FF722046BDE81040062171E610B5F7
:1005B00000F008F820714FF6FF722046BDE81040A9
:1005C000062173E68D4CC17A6170017BA170032115
:1005D000407BE070601CABE538B504460025E07C4C
:1005E000012851D1207800F0F001B02908D0C029AD
:1005F00019D0D02928D0E0293BD0F0293BD03DE0CC
:10060000AB21E172B22804BF6078012837D1022102
:100610007B4A217390797B4910B16573012022E0F8
:10062000012008700EE0AC21C128E17208BF012052
:1006300006D0C22808BF022002D0C3281FD1032041
:100640002073607860731AE0AD21D128E17203D184
:10065000012020736C4906E0D02810D160786B49E6
:100660002573012801D1087009E0022807D10D7017
:1006700005E0AE2000E0AF20E07200E00425204657
:10068000FFF78AFF00F039F8284632BD70B50446FE
:100690000025E07C01282ED120785D4E00F0F0018D
:1006A000B02908D0C02908D0D02908D0E0290DD021
:1006B000F0290DD00FE0AB200BE0AC2009E0AD211C
:1006C000D228E17208D10120307008E0AE2000E0AD
:1006D000AF20E07200E004253078012806D11F2207
:1006E00044494C4800F09EFC022030702046FFF741
:1006F0005EFF00F002F8284670BD0020A072E07492
:10070000E080E070A07020822081704710B5044620
:100710000020A17C01290FD1227D012A02D0617D18
:10072000012900DD20E0218930484FF6FF72FFF7F4
:10073000B0FD617D491C617510BD10B504460020F7
:10074000A17C01290FD1227D012A02D0617D0529DA
:1007500000DB09E0218927484FF6FF72FFF7A6FD6D
:10076000617D491C617510BDA072A0746075207513
:10077000E074E080E070A0702082208110BDE32151
:10078000E0B58DF801105B2001218DF80210E32205
:1007900000218DF80310ADF804108DF800005D21E4
:1007A0008DF806108DF8052000210DF102039DF84B
:1007B00005205B5C491C5A4002298DF80520F4DDB8
:1007C0004FF6FF7307226946034800F061F80EBD3B
:1007D000880000207000002028230020B410002092
:1007E00068230020B8180020B8100020A4000020C2
:1007F000BC180020AC08002000100140FC230020A1
:10080000D823002013000020120000201100002037
:10081000100000201800002038B5040001D101208C
:1008200032BD00F022F808B900F023F800F013F808
:1008300000F024F8FFE7416100F001F832BD2068C4
:10084000C16841F40051C1600020686020206870D8
:10085000A87000207047242068702068C16821F4C7
:100860000051C160204600F06EBA04F13805687886
:10087000704700212970204600F051BC20680169B2
:1008800021F4904101612068416921F02A017047FB
:100890002DE9F843054605F138070C4678782028FD
:1008A000164698463CD1002C14BF002E012038D0AB
:1008B0003878012834D00121397021200021796055
:1008C000787000F0FFFCAE848146EE8403E0296876
:1008D00014F8010B4860E88C28B3E98C481EE884C2
:1008E0004B46A868CDF80080B0F5805F0DD100F0D0
:1008F00024F870B920882968C0F308004860286986
:10090000002814BF641CA41CE5E700F016F80028BA
:10091000DDD0032005E0202078700020387000E052
:100920000220BDE8F283CDF800804B460022402132
:1009300000F005F80028EED0EBE7002280212846E1
:1009400067E138B5044604F138051346A878202835
:100950003ED109B1180001D1012032BD287801280B
:1009600036D001222A70A162A3850020686022206F
:10097000A870626B0FF211209062626B0FF241203F
:10098000D062626B0FF2412010630020626B5063F3
:100990000A462068011D606B00F0DDFC002000901D
:1009A00020680168009142680092002200992A7034
:1009B000C26842F48072C2602068416941F001015E
:1009C00041612068416941F040014161002032BD30
:1009D000022032BD38B5044604F13905206841696A
:1009E0002A78212A09D1090607D500F017F808B19D
:1009F00000F0EBFC204600F03EF9206841696A787F
:100A0000222A09D1490607D500F00EF808B100F0F6
:100A1000DCFC204600F038F9002032BD416921F0AD
:100A200080014161206B7047416921F040014161C3
:100A3000606B704738B5044625682968EA686B69B9
:100A400011F00F0007D188065DD590065BD52046D2
:100A5000BDE832402CE1D80702D412F4907F52D086
:100A6000C80705D5D00503D5E06B40F00100E06371
:100A7000480705D5D80703D5E06B40F00200E063D6
:100A8000880705D5D80703D5E06B40F00400E06384
:100A9000080705D5D80703D5E06B40F00800E063F0
:100AA000E06B00286ED0890604D5900644BF20462E
:100AB00000F0FEF820684069E16B0A0701D44006A7
:100AC0001BD5204600F0E0F8206841694A060FD5A2
:100AD000FFF7AAFF60B10FF2CD114163606B00F028
:100AE0008DFC00284ED0606B416BBDE83440084758
:100AF0002046BDE8324000F0FCBD204600F0F9FD84
:100B00000020E06331BD08062CD510062AD594F8E4
:100B10003900212836D1A168206AB1F5805F0DD156
:100B20000188C1F308016960206918B9216A881C2D
:100B3000206207E0206A411C216203E0411C21621F
:100B400000786860E08C401EE08480B2D0B92068F4
:100B5000C16821F08001C1602068C16841F0400196
:100B6000C16031BD48060DD550060BD5E86820F0B0
:100B70004000E860202184F839102046BDE832406A
:100B800000F0B8BD31BD0000416A006802689306FC
:100B900013D40020C8850868C26822F48072C2603D
:100BA000086842695208520042610868426922F0AE
:100BB00040024261202081F83A00084600F09BBDC7
:100BC000406A00F099BD000038B5446A2068406969
:100BD00004F139052978212906D1000604D5002021
:100BE000E084204600F047F82068406969782229AF
:100BF00006D1400604D50020E085204600F044F8E8
:100C0000E06B40F01000E0632046BDE8324000F0A9
:100C100070BD2DE9F041069C05460E4690461F46E4
:100C2000286801683140B1420CBF012000204045D6
:100C300017D114F1010FF3D024B100F043FBC01B16
:100C40008442EDD22868C16821F4D07100F00CF81C
:100C500005F13800202141708170002101700320CE
:100C600000E00020BDE8F081C160286841694908C2
:100C70004900416170470168CA6822F0C002CA6039
:100C8000202180F8391070470168CA6822F49072F8
:100C9000CA6001684A69520852004A61202180F8FE
:100CA0003A107047406A0021C185C18400F021BD1F
:100CB00080B590F83A10222943D18268B2F5805F5E
:100CC00014D1826A016941B903685968C1F3080106
:100CD0001180826A911C816218E001684B6803F000
:100CE000FF031380816A4A1C82620FE001690029B8
:100CF000816A04D14A1C82620268536805E04A1C7A
:100D000082620268536803F07F030B70C18D491E35
:100D1000C18589B299B90168CA6822F02002CA6007
:100D20000168CA6822F48072CA6001684A69520880
:100D300052004A61202180F83A1000F0DCFC0020CB
:100D400002BD022002BD2DE9F0470446642521685A
:100D50000A69E06822F4405202430A611926CA680F
:100D600031480240A068024320690243606902439F
:100D7000CA604A69A06922F4407202432B484A6162
:100D800081420ED100F000FF074600F0FDFE8046D4
:100D900000F0FAFE814600F0F7FE824600F0F4FE15
:100DA0000DE000F0E9FE074600F0E6FE804600F0A8
:100DB000E3FE814600F0E0FE824600F0DDFE06FB29
:100DC00009F9616889007743B7FBF1F206FB08F780
:100DD000B7FBF1F3B9FBF1F7B7FBF5F705FB1733F9
:100DE0001B013233B3FBF5F3B2FBF5F203F0F00372
:100DF00003EB021306FB0AF74643B7FBF1F2B6FB1F
:100E0000F1F06421B0FBF1F005FB10252D01323526
:100E10006420B5FBF0F0216800F00F00C3188B6070
:100E2000BDE8F08700000000F3E9FFFF0038014053
:100E30002DE9F84F83460F46002080466A496B4AE9
:100E40006B4B4FF00F094FF0010A3C680AFA08F6A5
:100E500006EA040EB64540F0AE807C683CB3012C37
:100E60001AD0022C1DD0032C2ED0112C16D0122CEF
:100E70001AD0604DAC421CBF5F4DAC4217D05F4DE5
:100E8000AC421CBF5E4DAC4211D05E4DAC421CBFAB
:100E90005D4DAC420BD018E0F86816E0F868001D14
:100EA00013E0F868083010E0F8680C300DE0B8681E
:100EB00008B9042009E0012819BF0820CBF8146004
:100EC0000820CBF8106000E00020BEF5807F03D240
:100ED000DC464FEA880404E0A8F108040BF1040C96
:100EE000A400DCF8005009FA04F6B54300FA04F453
:100EF0002C43CCF800407C68E4005CD51C6844F0CE
:100F000001041C604FEA980C1D6805F0010500956E
:100F1000009C52F82C604FEA880404F00C0409FA93
:100F200004F526EA0505394EB34508BF002618D05A
:100F3000374EB34508BF012613D0364EB34508BF20
:100F400002260ED0344EB34508BF032609D0334ED7
:100F5000B34508BF042604D0314EB3450CBF052667
:100F6000062606FA04F42C4342F82C406FEA0E06DB
:100F70007C68E50304D50D684EEA05050D6002E0C6
:100F80000C6834400C607C68A5034C684CBF4EEA8A
:100F9000040434404C607C68E5028C684CBF4EEA27
:100FA000040434408C607C68A502CC684CBF4EEAD7
:100FB00004043440CC6008F10108B8F10F0F7FF64B
:100FC00044AFBDE8F18F8068084018BF0120C0B26F
:100FD000704781B002B90904016101B07047C2686D
:100FE0005140C1607047000000040140080001400A
:100FF0001810024000001110000012100000211013
:1010000000002210000031100000321000080140E2
:10101000000C014000100140001401400018014084
:10102000001C014062B38B0708D0521E11F8013B2F
:1010300000F8013B00F024808B07F6D1830740F0D5
:10104000208000BF103A07D330B4B1E83810103A0E
:10105000A0E83810F9D230BC530724BFB1E808101B
:10106000A0E8081044BF51F8043B40F8043BD20705
:1010700024BF31F8022B20F8022B44BF0B780370F9
:101080007047121F17D35B0009D151F8043B20F8B9
:10109000023B1B0C121F20F8023BF6D20BE051F86A
:1010A000043B00F8013B1B0A20F8023B1B0C121FFB
:1010B00000F8013BF3D238BF121D521E24BF11F8B5
:1010C000013B00F8013BF8D87047000080B5684844
:1010D000684900F011F818B1BDE8044048211AE051
:1010E00001BD80B56448654900F006F818B1BDE857
:1010F00004405B210FE001BD01604FF4E13141602C
:1011000000218160C16001610C2141610021816188
:10111000C161FFF781BB0FF2781000F075BF2DE9B8
:10112000F841044685B02068524A554D0FF26018C8
:10113000544F554E554990423FD1086840F4804085
:1011400008600222096801F4804104914FF40071A3
:1011500000F085F84FF4806000F078F805F1140095
:10116000386000207860B8608020F8600020386126
:101170007861B861F861384600F0AAF810B18621AC
:1011800000F061F810206763B8647C620020F864A6
:101190007D648020386500207865B865F86538661C
:1011A00007F1440000F094F810B1962100F04BF8DC
:1011B00007F144002063BC6642E0304A90423FD1D0
:1011C000486840F4003048600222486800F400306B
:1011D0000490042100F043F8082000F037F807F1EC
:1011E000880605F12800306000207060B060802023
:1011F000F060002030617061B061F061304600F055
:1012000067F810B1C12100F01EF86663746205F141
:101210003C00706407F1CC051020B0640020F0643D
:101220008020306500207065B065F0653066284626
:1012300000F04EF810B1D12100F005F82563B46636
:1012400006B0BDE8F081404600F0DEBE009000210F
:1012500001200191029069463046FFF7E9BD0498EC
:10126000009103200390019269463046FFF7E0BDEC
:10127000282300200038014068230020004400405B
:1012800044000240BC200020000801401810024029
:10129000453A5C55736572735C626572747A5C443E
:1012A0006F63756D656E74735C4769744875625CD5
:1012B000445376312E345C5372635C75736172747F
:1012C0002E63000001480068704700BF042400201E
:1012D00030B508B9012030BD0268DFF8B0138A428A
:1012E00000F1280306D2DFF8A81300F02DF8DFF88C
:1012F000A41305E0DFF8A01300F026F8DFF89C1334
:101300005961022180F82110146841686FF30D14AF
:101310000C4381680C43C1680C4301690C4341696B
:101320000C4381690C43C1690C43146000211960AE
:1013300059609960D9601961012180F8211000215C
:1013400080F82010002030BD8C181425B4FBF5F473
:10135000A4009C617047F8B50446002594F820006D
:10136000012801D10220F2BD94F8210001260128B4
:1013700084F8206024D1022684F8216004F12C0630
:10138000F560206807687F087F000760204600F04E
:101390009FF92168306820B10A6842F00E020A60A5
:1013A00008E0086820F0040008602068016841F047
:1013B0000A0101602068026842F00102026002E056
:1013C00084F8205002252846F2BD10B501680A684D
:1013D00022F00E020A6000F13C020B685B085B0021
:1013E0000B60012451688C4011684C60012200217F
:1013F00080F8212080F82010002010BDF8B590F86A
:1014000021200024022A00F1340103D00420486086
:1014100001245FE00268DFF88862136823F00E039E
:1014200013604FF48077026815686D086D001560D1
:101430004FF480320368B3424FF4805519D9DFF876
:101440004C62B34208BF012210D0DFF85862B342A9
:1014500008BF10220AD0DFF85062B34208BF3A46F4
:1014600004D0DFF84862B34208BF2A46DFF84032B2
:1014700027E0DFF840C263451CD0DFF83CC263457B
:101480001AD0DFF838C2634518D0DFF83472BB4297
:101490000EBF2A46DFF82C52AB4210D0DFF828529C
:1014A000AB4208BF4FF4801209D0B34207D14FF0CE
:1014B000807204E0012202E0102200E03A46DFF8E8
:1014C0000C321A60012280F8212080F8204009683F
:1014D00001B188472046F2BD2DE9F84F00F12802FE
:1014E00004275169734BD1F800E004686C49256802
:1014F0009669DFF8BC81DFF8B491DFF8ACA1DFF8C2
:10150000A4B1DFF888C1B7401EEA070F4AD06F07C1
:1015100048D52568AD0603D4256825F00405256067
:101520004FF4802407688F424FF480454FF4806663
:1015300011D9674508BF04240AD05F4508BF40247D
:1015400006D0574508BF344602D04F4508BF2C4649
:10155000C8F8004020E09F4217D0574B9F4216D05A
:10156000564B9F4215D0564B9F420EBF2C46554BB3
:101570009F420FD0544B9F4208BF4FF4800409D0C4
:101580008F4207D14FF0806404E0042402E040243D
:1015900000E034464D490C605168002974D0BDE824
:1015A000F44F08470227B7401EEA070F4FD0AF0796
:1015B0004DD52568AD0606D4256825F00A052560B9
:1015C000012480F821404FF4003407688F424FF423
:1015D00000554FF4007611D9674508BF02240AD0A0
:1015E0005F4508BF202406D0574508BF344602D0C7
:1015F0004F4508BF2C46C8F8004020E09F4217D056
:101600002D4B9F4216D02D4B9F4215D02C4B9F4205
:101610000EBF2C462B4B9F420FD02B4B9F4208BF37
:101620004FF4001409D08F4207D14FF0007404E04A
:10163000022402E0202400E0344624490C6000210A
:1016400080F820101168F9B1BDE8F44F084708216F
:1016500001FA06F61EEA060F16D0290714D52168EE
:1016600021F00E012160012391698B4051694B608B
:1016700001230021136180F8201080F82130916847
:1016800011B1BDE8F44F0847BDE8F18F08040240EE
:10169000F8FFFDBF00000240F8FBFDBF0004024060
:1016A000800002401C040240300402404404024016
:1016B00004040240080002401C00024030000240C6
:1016C00044000240580002406C0002400400024006
:1016D00038B5046C0125A540C46B6560046863607F
:1016E0004068102802D1A260E16031BDA160E260D3
:1016F00031BD704770477047704700002DE9F843CF
:101700000646DFF898543078C1074AD5686800F07B
:101710000C00042807D0686800F00C0008280BD1E2
:101720006868C10308D5296888033AD5706800281D
:1017300040F0C080012069E17068B0F5803F0FD0B3
:1017400038B9296821F480312960286820F4802084
:1017500009E0B0F5A02F296807D141F48021296064
:10176000286840F48030286006E021F48031296048
:101770002A6822F480222A60706868B1FFF7A2FD0F
:1017800004462968880300F19580FFF79BFD001B44
:101790006528F6D3032039E1FFF794FD0446286855
:1017A000810340F18780FFF78DFD001B6528F6D38C
:1017B000F0E7FFF787FD001B022840F2AA80E9E767
:1017C000306970B101213960FFF77CFD044628685B
:1017D000810700F1DC80FFF775FD001B0228F6D9B8
:1017E000D8E73860FFF76EFD04462868810765D5A5
:1017F000FFF768FD001B0228F7D9CBE70860FFF769
:1018000061FD0446686A810777D5FFF75BFD001B21
:101810000228F7D9BEE708B9286A09E00528286A2E
:1018200006D140F004002862286A40F0010005E07B
:10183000400840002862286A20F00400286241F233
:101840008938F06868B1FFF73DFD8146286A810755
:1018500000F1AA80FFF736FDA0EB09004045F5D363
:1018600098E7FFF72FFD8146286A810740F19C80A9
:10187000FFF728FDA0EB09004045F5D38AE7FFF705
:1018800021FD001B022840F2A28083E7FFF71AFD2A
:10189000001B022840F2B5807CE700F0B9F804464E
:1018A0002868810140F1B180FFF70CFD001B022880
:1018B000F6D96FE73078DFF8F07281071BD56868DA
:1018C00010F00C0F09D0686800F00C0008287FF4B5
:1018D00077AF6868C1033FF573AF2968880703D500
:1018E000306901287FF426AF2968706921F0F8017A
:1018F00041EAC0012960317808071DD5B069DFF8D9
:10190000AC1200283FF47AAF01220A60FFF7DAFC3C
:101910000446686A81077FF54CAFDFF884120868D7
:10192000C0084FF47A72B0FBF2F2009200BF009848
:10193000411E00280091F9D13078410739D5E86976
:101940000024C10009D4E86940F08050E861012416
:10195000E86900F0805000900098DFF85482D8F8D1
:101960000010C8051BD4D8F8000040F48070C8F8F7
:101970000000FFF7A7FC8146D8F80010C8050ED478
:10198000FFF7A0FCA0EB09006528F5D302E7286863
:10199000716920F0F80040EAC1002860ABE7F06808
:1019A00001287FF438AF3FE71CB1E86920F0805090
:1019B000E861F06948B3696801F00C0108293FF457
:1019C000B9AE02287FF469AF00F022F80446286817
:1019D00081013FF554AF306AB0F5803F05D16968A9
:1019E000B06821F40031014369606968306A21F40C
:1019F00074110143706A01436960012000F009F825
:101A00000446286881017FF541AF0020BDE8F283DC
:101A100000203866FFF756BC2DE9F843654F0546B0
:101A20003868894600F00700484502D200F07AF88D
:101A30006CD12978594C880705D56168A86821F0D0
:101A4000F001014361602878C10757D56868012813
:101A500002D121688A0303E0022803D121688A01A8
:101A600003D453E02268910750D56168890840EAA1
:101A70008100606041F28938FFF724FC06466868FF
:101A800001280BD1606800F00C00042836D0FFF765
:101A900019FC801B4045F5D303202DE0022837D1E7
:101AA000606800F00C00082828D0FFF70BFC801BB2
:101AB0004045F5D3F0E72878410705D56168E86827
:101AC00021F4E061014361602878010706D5606870
:101AD000296920F4605040EAC100606000F02CF8F1
:101AE00062683549C2F30312895C2D4AC840106010
:101AF000002000F08BFA0020BDE8F283386800F087
:101B000007008145D7D200F00DF8D4D00120F3E7CB
:101B1000606810F00C0FF1D0FFF7D4FB801B40453C
:101B2000F6D3B9E73968C90849EAC10139603868AC
:101B300000F007004845704720490A6802F00C0091
:101B4000082814D10FF28003C2F38340D203185C3B
:101B50000AD509680FF28003124AC1F34041595C6B
:101B6000B2FBF1F1484370471549484370470D48AF
:101B700070470B48006870470948104A00681368AE
:101B80001049C3F3022206E005480C4A00681368B6
:101B90000C49C3F3C222895CC84070470010024060
:101BA000A000002000127A0000004242800442425D
:101BB0000070004000200240D436000804100240AB
:101BC00000093D000838000802030405060708095B
:101BD0000A0B0C0D0E0F1010010200002DE9F84346
:101BE000DFF80444DFF80454DFF8046400202072B6
:101BF00040F63C770520A08040F6D96800F01AFA3C
:101C000000F0B8F800F028FA00F08CFAFFF75EFA5E
:101C1000FFF767FA00F096FA00F02CFB00F0CAFB21
:101C200000F0F5FB00F096FB00F0E7F800F090FC08
:101C30000021DFF8C00300F007FD0A2204F13C0197
:101C4000DFF8B40301F06AF8284600F0D0FC304613
:101C500000F0CDFC01F076FAFEF7E6FAFEF7F3FAB3
:101C6000284600F0C4FC304600F0C1FC00F071FCD6
:101C700004F188054FF6FF7642F2117952E000F048
:101C80009FF9FEF72DFB04F17000FEF7A5FCFEF7AF
:101C9000A6FB2846FEF7FAFC207C02280CD132462F
:101CA0001F2104F11800FEF7F4FA1F2104F11800B7
:101CB00001F07CFA00202074207D01282CD104F151
:101CC0007000FEF723FD2846FEF737FD626EA06E1A
:101CD000002104F13C0353F821309A18491C04F107
:101CE0003C03C9B253F82130491C1818C9B20A295B
:101CF000EFDB0521B2FBF1F161660521B0FBF1F0EC
:101D0000A06680B201F056FA606E80B201F059FA16
:101D100000206066A0662075E07C18B1FEF716FA18
:101D20000021E174607D18B100F01AFC002161759A
:101D3000E06E484503D301F04EFA0020E066A17C36
:101D400000291CBF607C002803D001F044FA002168
:101D5000A174207A18B1FEF712FD0021217201F062
:101D6000F8F9A07D00288AD0218F4145A8BF278798
:101D7000208F84E700B5002195B001200D910B90D4
:101D8000022112914FF480300C90012213904FF4F5
:101D9000E0110F9214910BA8FFF7B0FC00B1FEE721
:101DA0000F2102200091019000214FF480600291E8
:101DB0000390049168460221FFF72EFE00B1FEE772
:101DC000022005904FF40041079105A801F03AFA6E
:101DD00000B1FEE7FFF7CDFE4FF47A71B0FBF1F0F2
:101DE00001F0E7FA042001F0F8FA002200214FF098
:101DF000FF3001F0B7FA15B000BD80B50022002118
:101E00001E2001F0AFFA1E2001F0C9FA00220021C5
:101E1000322001F0A7FA322001F0C1FA002200219D
:101E2000252001F09FFA252001F0B9FA00220021B7
:101E3000262001F097FA262001F0B1FA00220021B5
:101E40000B2001F08FFA0B2001F0A9FA00220021EB
:101E50000E2001F087FA0E2001F0A1FA00220021E5
:101E60000F2001F07FFA0F2001F099FA00220021E3
:101E7000102001F077FA102001F091FA00220021E1
:101E8000112001F06FFA112001F089FA00220021DF
:101E9000122001F067FA122001F081FA00220021DD
:101EA0001D2001F05FFABDE802401D2001F077BA65
:101EB00038B505464D482A680168504C91422AD1F0
:101EC00010214F48FFF77FF82070002804BF617889
:101ED000002915D1E079E0B9A078A188401CA07054
:101EE000C0B2814215D2A07998B9012001F070F9F1
:101EF00001202074A0710020A0700120E07108E092
:101F0000002001F065F900202074A070E08001201D
:101F100020722078607036482A68016891424ED15C
:101F2000314DE86E2A8F401CE866607CA18A401C17
:101F3000491CC0B2042808DB207C00281ABF921C70
:101F400001204FF46172A875002089B22A87C9293F
:101F5000607402DB012068750021608AA182401C48
:101F600080B240F22D11884202DB0120287500204A
:101F70006082E068512824BF401EE06002212148B1
:101F8000FFF721F82870002804BF6978002911D1D3
:101F9000E87990B9A878A988401CA870C0B281429D
:101FA0000BD2A87948B101210020A971A870E9716C
:101FB000297202E00020E880A8702878687031BD9E
:101FC00018B587B060210190009100200290049024
:101FD0000022084C6946204600F0FAFB002120460A
:101FE00000F032FB08B010BD00000020A822002045
:101FF000E822002068220020A8230020D823002007
:102000000010014000080140FEE7000010B508493B
:102010000A6804464FF47A70B2FBF0F001F0C9F997
:10202000002221464FF0FF3001F09CF9002010BD46
:10203000A000002080B50748016841F01001016050
:10204000032001F082F90020FFF7E0FF01F0E2F940
:10205000002002BD00200240F0B52E482E4C2F4E2D
:1020600085B0016841F01001016042F24207026848
:1020700002F01002049243F260250499016841F0D5
:1020800020010160026802F02002049204990168B4
:1020900041F004010160026802F00402049200228F
:1020A0000499016841F0080101603946006800F0B8
:1020B0000800049004982046FEF78BFF0022294672
:1020C0003046FEF786FF0120022101900391009720
:1020D00069462046FEF7ACFE0220002100900191E7
:1020E000029169460E48FEF7A3FE102000900021E1
:1020F00001200191029069462046FEF799FE0120D9
:10210000022101900391009569463046FEF790FE4A
:1021100005B0F0BD1810024000100140000C014055
:1021200000080140064881B0016841F001010160EA
:10213000006800F001000090009801B0704700BFF7
:10214000141002403EB5384C38480FF2F4052060B8
:102150004FF48070A0600120E060002060614FF4C7
:102160006020E0610020606002202061204600F0D5
:1021700043FD18B145212846FFF746FF0C2000908B
:1021800001210620019102906946204600F0BBFE25
:1021900018B14F212846FFF737FF10200221009089
:1021A00001912046694600F0AEFE18B1582128463C
:1021B000FFF72AFF37BD30B5044685B020681B49BC
:1021C00088422ED11A481B4D016841F4007101600C
:1021D0000421006800F40070009003220098164863
:1021E0000191029201A9FEF723FE00206860A86019
:1021F0008020E8604FF4007028614FF4006068614F
:102200002020A86100200D49E86129602846FFF7D9
:102210005FF820B17C210FF22800FFF7F5FE256260
:102220006C6205B030BD0000A823002000240140EE
:102230001810024024220020001001400800024033
:10224000453A5C55736572735C626572747A5C447E
:102250006F63756D656E74735C4769744875625C15
:10226000445376312E345C5372635C6164632E6335
:102270000000000080B52648264901604FF48271B5
:102280004160002181604FF40061C1600221016161
:10229000012141614FF4007181611021C161002170
:1022A0000162416281620A21C16201F0F9F830B134
:1022B000BDE8044045210FF26800FFF7A5BE01BD4F
:1022C00000681449884200D0704718B51248134C72
:1022D00085B0016841F480510160A021006800F4DC
:1022E00080500090022200980191032004900292F5
:1022F00001A92046FEF79CFD40200021019002919B
:102300000391204601A9FEF793FD06B010BD000021
:10231000CC2100200030014018100240000801408C
:10232000453A5C55736572735C626572747A5C449D
:102330006F63756D656E74735C4769744875625C34
:10234000445376312E345C5372635C7370692E6330
:1023500000000000684830B5684C0FF2C0152060DE
:1023600089B000F045F840F69F70E06000202061E1
:10237000A061204600F05BF910B1412100F03DF86A
:1023800000F03EF810B1482100F037F8602000213D
:102390000290039104910691002202A9204600F0C8
:1023A00017FA10B1512100F028F8204600F089F802
:1023B00009B030BD524838B5524C0FF2601520605C
:1023C00086B000F015F8632000F047F810B16521E1
:1023D00000F013F800F03AF810B16B2100F00DF89E
:1023E00000F00EF810B1722100F007F807B030BD10
:1023F000472060600020A06070472846FFF704BEB9
:102400000020009001906946204601F08BB83E48BC
:1024100038B53E4C0FF20415206086B0FFF7E8FF98
:1024200040F2E73000F019F810B18421FFF7E5FF22
:1024300000F00CF810B18A21FFF7DFFFFFF7E0FF93
:1024400010B19121FFF7D9FF07B030BD4FF4805094
:10245000029002A9204600F02FBAE060002020611F
:10246000A061204600F0B6B881B0006822498842D9
:1024700009D12748016841F002010160006800F0BD
:1024800002000090009801B0704781B000681C4ABB
:102490001F49904207D1086840F0040008600968AD
:1024A00001F0040109E0184A904208D1086840F0A0
:1024B00008000860096801F008010091009801B067
:1024C000704700680C49884200D07047F8B5102169
:1024D000022000910190039069460E48FEF7A8FC87
:1024E0000D48016821F440610160026842F4006215
:1024F000026005B000BD000000040040682200201A
:1025000000080040A8220020000C0040E822002023
:102510001C100240000C014004000140453A5C558B
:10252000736572735C626572747A5C446F63756D17
:10253000656E74735C4769744875625C44537631A8
:102540002E345C5372635C74696D2E63000000006E
:1025500070470022FFE74FF400711848FEF739BDBD
:1025600038B51849164C0878144DA0B10022402106
:1025700000F02CF84FF400512846FEF730FD4FF4E0
:1025800080512846FEF72BFD2046BDE834404FF42D
:102590000051FEF724BD0122402100F017F801226E
:1025A00000F012F8002200F00FF82046BDE8384095
:1025B00001224FF40051FEF70CBD0000000C014059
:1025C00000100140EE2300204FF400512846FEF792
:1025D00000BD000038B5040001D1012032BD00F07B
:1025E0004BF818B900F044F8FFF74FFF0AE0006815
:1025F000C16841F00101C160026842F0010202605D
:102600000020704702206870211D206800F0BFF98B
:1026100001206870002032BD03D1416C41F40041BB
:102620004164026842F001020260002016BD38B524
:10263000040001D1012032BD00F01EF818B900F0ED
:1026400017F8FFF711FFDDE71CB500F007F800F001
:102650000AF81CBFDFF828108842DDE70446012293
:10266000206800F0BCBA2068DFF818108842704774
:10267000002129702046704704F13C0568787047B6
:1026800000340140002C014010B504462068016967
:102690008A0715D5C1688A0712D56FF00202026158
:1026A00001212177806910F0030F204602D000F04D
:1026B0005EFF03E000F05CFF00F087F80020207769
:1026C000206801694A0715D5C1684A0712D56FF01D
:1026D0000402026102212177806910F4407F2046C4
:1026E00002D000F044FF03E000F042FF00F06DF87C
:1026F00000202077206801690A0715D5C1680A07FC
:1027000012D56FF00802026104212177C06910F030
:10271000030F204602D000F02AFF03E000F028FF5C
:1027200000F053F80020207720680169CA0615D50B
:10273000C168CA0612D56FF0100202610821217724
:10274000C06910F4407F204602D000F010FF03E083
:1027500000F00EFF00F039F80020207720680169B2
:10276000CA0708D5C168CA0705D56FF00102026122
:102770002046FFF79DFB206801690A0608D5C1685D
:102780000A0605D56FF080020261204600F0F1FED6
:10279000206801694A0608D5C1684A0605D56FF068
:1027A00040020261204600F0E5FE206801698A06C9
:1027B0000AD5C1688A0607D56FF02002026120465B
:1027C000BDE8104000F0D7BE10BD204600F0D4BEDA
:1027D00070B500F065F801D1022070BD00F067F817
:1027E00032B1042A17D0082A28D00C2A39D04AE05E
:1027F0003068294600F005F93068816941F0080128
:1028000000F04AF821F00401816131688A69286981
:1028100002438A6137E03068294600F01BF93068CE
:10282000816941F4006100F037F821F4806100F023
:1028300033F82A6941EA0221816124E0306829469F
:1028400000F038F93068C16941F0080100F020F863
:1028500021F00401C1613168CA6928690243CA6173
:1028600011E03068294600F057F93068C16941F439
:10287000006100F00DF821F4806100F009F82A6988
:1028800041EA0221C161012060700020207070BD0A
:10289000C1613068C1697047816130688169704782
:1028A000064606F13C040D462078012870470121B8
:1028B000217002206070704738B500F05DF801D1DA
:1028C000022032BD01222270022060702A68DFF8E7
:1028D00090029368034093600868002837D010285E
:1028E00037D0202837D0302837D040282BD0502858
:1028F0001ED0602820D070280BD0B0F5805F03D0A8
:10290000B0F5005F0CD02CE028688168C908C900C8
:102910000CE000F028F82868816841F0770105E0B4
:1029200000F021F82868816841F48041816018E056
:1029300000F01EF8502111E0CA684968286800F0CC
:102940002AF960210AE000F013F8402106E0002196
:1029500004E0102102E0202100E03021286800F08E
:102960002CF90FE00000CB684A68896828682CE1E0
:10297000CA6849682868FFE0054605F13C042078EC
:1029800001287047012060700020207032BDF0B532
:10299000DFF8D0C1744F0368744C754D754E6045B7
:1029A00018BFB84208D0B0F1804F18BFB04203D072
:1029B000A84218BFA0420DD14A6823F07003134308
:1029C000604518BFB84207D0B0F1804F1CBFB0427D
:1029D000A84201D0A04203D1CA6823F44073134334
:1029E0004A6923F080031343036060458A68C2622A
:1029F0000A68826212BFB84209690163012141611C
:102A0000F0BDF0B5026A574F574E520852000262AD
:102A1000056A4368846900F079F825F002051543DA
:102A2000B84218BFB04207D1CA6825F0080515435F
:102A3000B84225F0040501D0B04205D14A6923F41B
:102A4000407313438A691343436084614968416357
:102A50000562F0BDF0B5026A424E22F01002026239
:102A6000B042056A436884690A6824F4E64444EA8B
:102A700002248A6825F0200545EA02153A4A18BF63
:102A8000904208D1CF6825F0800545EA0715B0428D
:102A900025F0400501D0904206D14E698A6923F4A1
:102AA0004063164343EA8603436084614968816357
:102AB0000562F0BDF0B5026A2A4E22F4807202620D
:102AC000056A4368C46900F021F825F4007545EAF9
:102AD0000225254AB04218BF904208D1CF6825F49C
:102AE000006545EA0725B04225F4806501D0904293
:102AF00006D14E698A6923F44053164343EA06130C
:102B00004360C4614968C1630562F0BD0A6824F08E
:102B1000730414438A68704770B5026A114E22F438
:102B200080520262B042046A4268C3690D6823F4AD
:102B3000E64343EA05238D6824F400541CBF0A4E83
:102B4000B04244EA053404D14D6922F4804242EA9D
:102B500085124260C36149680164046270BD00006F
:102B60008800FFFF002C014000340140000C0040B1
:102B7000000800400004004010B5036A046A6408BD
:102B80006400046223F00A03846924F0F00444EA38
:102B9000021484612CE010B5036A23F01003036271
:102BA0008369046A23F4704343EA023324F0A004E7
:102BB000836144EA0114046210BD826822F070024D
:102BC000114341F007018160704710B5846824F417
:102BD0007F442143114341EA0321816010BD10B5B8
:102BE000036A01248C40A343036202FA01F1036AE1
:102BF0001943016210BD0000F8B504460027002605
:102C0000002C7AD004F12405686820B9AE602870E1
:102C10002046FFF7D0FA204600F03EFA6968CA065F
:102C20006CD401006AD1696821F4885141F0020135
:102C300069602368DFF83814E269D4F804C08B4275
:102C400004BFB2F5402F4FF40022E16842EA0C02C3
:102C5000D4F808C0BCF5807F14BFBCF1010F4FF45D
:102C60008077D4F814C0BCF1010F42EA41020FD1C1
:102C700031B9A169491E490341F400610F4307E0DE
:102C8000696841F020016960A96841F00101A9600B
:102C9000596821F469410F435F602368DFF8D4135A
:102CA0009F680F4017439F60A168B1F5807F18BFF0
:102CB000012902D12669761E36052168CB6A23F4E4
:102CC00070031E43CE622468DFF8AC13A3680B4088
:102CD000934208D10021A960696821F0020141F006
:102CE00001016960F2BD686820F0020040F0100048
:102CF0006860A86840F00100A86003E0686840F0E0
:102D0000100068600120F2BD044604F12405287813
:102D10000128704701212970204672E12DE9FC4706
:102D2000044689462068DFF86413DFF85883DFF82B
:102D30005873884218BF4045924603D1386810F452
:102D4000702F64D1FFF7E1FF08BF022061D0FFF7C9
:102D5000E1FF0028064657D16968DFF824030140E7
:102D600041F4807169602068404518D1396811F4D8
:102D7000702F14D0686840F4801068603968480586
:102D800005D5686820F4005040F480506860686899
:102D9000C10446BFA86820F00600002006E069686C
:102DA00021F48011696040684105E9E7A860534655
:102DB00000202870216A0FF225308862216A0FF204
:102DC0006530C862216A0FF2653008636FF0020057
:102DD000226810604A462068816841F480718160F1
:102DE000206800F14C01206AFEF7B5FA206881687E
:102DF00001F46021B1F5602F81680CBF41F4A0019E
:102E000041F48011816003E00020287000E0012679
:102E10003046BDE8F68710B504462168486882064A
:102E200022D50A6890071FD5A06AC20603D4A06AFB
:102E300040F40070A06200F05AF804BFE068002877
:102E40000BD14A6822F020024A60A06A20F4807008
:102E5000A062A06AC10400F050F8204600F08DFB8B
:102E600021686FF0120008602168486802062BD5BF
:102E70000A68500728D5A06AC20603D4A06A40F4A5
:102E80000050A062886800F4E040B0F5E04F08D040
:102E90004868420511D400F02AF804BFE068002811
:102EA0000BD14A6822F080024A60A06A20F4805068
:102EB000A062A06AC10500F020F8204600F05EFB89
:102EC00021686FF00C000860206841684A060DD543
:102ED0000068C1070AD5A06A40F48030A06220468D
:102EE00000F04DFB21686FF00100086010BD88689C
:102EF00000F46020B0F5602F704703D4A06A40F062
:102F00000100A0627047F8B50A46002100F12403D1
:102F100000911C78012C01D10220F2BD01251D7009
:102F20001F27546815680668072C08D2641E04EB36
:102F30008404D6F834C000F05EF8756312E00D2CFE
:102F400008D2E41F04EB8404D6F830C000F053F834
:102F5000356307E00D3C04EB8404D6F82CC000F088
:102F60004AF8F56207271668946805680A2E08D3A0
:102F70000A3E06EB4606D5F80CC000F036F8EC60C9
:102F800006E006EB4606D5F810C000F02EF82C61DE
:102F90001468102C18BF112C23D100683B4CA042A0
:102FA0001AD13B48046825021BD4056845F4000586
:102FB00005601068102814D1304C36482568B5FBE0
:102FC000F0F00A2250430090009800281EBF009A9B
:102FD000521E0092F8D104E00121586840F0200010
:102FE0005860002018700846F2BDB7402CEA070769
:102FF000B4403C437047A7402CEA0707A5403D4337
:10300000704738B504460020009020688168CA07E0
:103010002AD481681F4A41F0010181601748016884
:10302000B1FBF2F2009202E00098401E009000987E
:103030000028F9D1FEF746F9054621688868C107DE
:1030400012D4FEF73FF9401B0328F6D304F1240005
:103050000022416841F010014160816841F00101A6
:1030600081600270012032BD002032BD00000000EE
:10307000003C0140FDF7E1FFFE0E1FFFA000002015
:10308000FEF1FFFF0028014004240140002401401C
:103090000824014040420F0038B50446206881688A
:1030A000CA0719D58168490849008160FEF70AF905
:1030B000054620688168C8070ED5FEF703F9401B56
:1030C0000328F6D3A06A40F01000A062E06A40F046
:1030D0000100E062012032BD002032BD416A8A6AEF
:1030E00012F0500F1BD1886A40F4007088620A68A1
:1030F000906800F46020B0F5602F04BFC868002815
:103100000AD18A6A22F480728A62886AC20403D46D
:10311000886A40F001008862084600F02EBA096A09
:103120000A6B1047406A00F02BBA0000406A816ABF
:1031300041F040018162C16A41F00401C16200F0C6
:1031400020BA00001548142181800021C1600020B0
:10315000704738B5114C124BE179002011B1E2688B
:10316000642A00D21870A279002A1CBF217A002993
:1031700013D00C480C4DE06001201870B12028706D
:10318000012068700020E8806880642000F0FAF96F
:103190002846FDF7E2F90021217232BDD823002034
:1031A000EE230020F45F010070000020002200F0F8
:1031B000F9B900002149020A02F00F020A704870B2
:1031C00070471E49020A02F00F028A70C8707047E9
:1031D0001A498871704700B585B05B208DF80000F2
:1031E000D12101208DF802008DF8011000208DF80A
:1031F00003000A215D208DF804108DF810000A22CA
:103200000E490DF10500FDF70DFF9DF801008DF849
:103210000F0000200DF102029DF80F10125C401CFF
:1032200051400D288DF80F10F4DB4FF6FF7311227B
:1032300069460348FDF72CFB05B000BDF0230020D4
:10324000282300202DE9FC410646354D3078C10782
:1032500050D5A8690024C10009D4A86940F0805065
:10326000A8610124A86900F08050009000982D4FBB
:103270003968C80517D4386840F480703860FEF7A4
:1032800021F880463968C8050DD4FEF71BF8A0EB7D
:1032900008006528F6D303203FE0FEF713F8C01BB3
:1032A000404519D3F7E7E86910F440701EBF716814
:1032B00001F44071884212D01B49E86901220A607A
:1032C00020F4407000220A60E861C00707D5FDF7CE
:1032D000F9FF074641F28938E8698107DDD5E969D8
:1032E000706821F440710143E9611CB1A86920F0C4
:1032F0008050A8613178880705D52A68B06822F423
:10330000404202432A603078C10605D529687069B9
:1033100021F48001014329600020BDE8F68100000E
:10332000041002400070004040044242090100289D
:1033300081B006D52F4A00F00F00104400F8041C9D
:1033400001E02D4A115401B070472C4A13684FF622
:10335000FF0100020B4000F4E060184328490843D5
:103360001060704738B5254B1C68C4F30223C3F1C5
:103370000704052C28BF04241D1D072D34BF00237E
:10338000DB1E012505FA04F4641E2140994005FA6C
:1033900003F35B1E1A401143BDE83440C6E7012227
:1033A00000F01F01174BFFE78A40400943F8202037
:1033B000704710B5401EB0F1807F01D3012010BDD1
:1033C000114C60600F214FF0FF30FFF7AFFF00227C
:1033D000A26007202060002010BD04280A4904D103
:1033E000086840F00400086070470A6822F0040290
:1033F0000A60704718ED00E000E400E00CED00E02A
:103400000000FA0500E100E010E000E000F000B884
:103410007047000080B52048016841F0010101605B
:10342000006800F00100009000980320FFF78DFF76
:10343000002200216FF00B00FFF794FF0022002113
:103440006FF00A00FFF78EFF002200216FF00900E5
:10345000FFF788FF002200216FF00400FFF782FFD2
:10346000002200216FF00300FFF77CFF0022002103
:103470006FF00100FFF776FF002200214FF0FF30D0
:10348000FFF770FF0548016821F0E0610160026804
:1034900042F00072026001BD1810024004000140B9
:1034A00010B5040001D1012010BD0020A06294F8E5
:1034B000510010B92046FEF703FF022184F8511095
:1034C0002068016821F0400101606268A068A1697C
:1034D0000243E0680243206902436069024301F449
:1034E0000071E0690A430243206A0243A06A024372
:1034F00020680260A169606A090C01F004010143BF
:10350000206841602068E16A01612068C16921F496
:103510000061C16100206065012084F85100002035
:1035200010BD000030B500F13C031A78012A01D12A
:10353000022030BD01241C7002225A7002685468B7
:1035400024F070045460046865680A681543656077
:103550000268946824F08004946002689468486863
:1035600004439460012058700020187030BD7047EB
:103570007047704770477047704770477047704793
:103580007047704731B5FDF79DFE009D15F1010FA5
:10359000044618BF6D1CFDF795FE001BA842FAD328
:1035A00031BD000000B500BF1300964694461039A7
:1035B00028BFA0E80C50FAD85FEA417C28BF0CC0B5
:1035C00048BF40F8042BC90728BF20F8022B48BF8A
:1035D00000F8012B00BD00007047FEE7FEE7FEE7A4
:1035E000FEE770477047704780B500F045F8BDE8CA
:1035F0000140FFF70BBF1548FDF76EBF1448FDF7FC
:103600006BBF1448FDF768BF1348FDF765BF13484B
:10361000FDF762BF1248FFF7FEBB1248FFF734B850
:103620001148FFF731B810B5104C2046FCF7BFFD2C
:1036300004E010B50E4C2046FCF7CBFD2046BDE85B
:103640001040FDF7F7B90B48FFF71EB82422002001
:1036500000210020BC2000204421002088210020DF
:10366000A823002068220020A82200202823002070
:1036700068230020E822002002480168491C0160FC
:10368000704700BF042400200E49086840F0010084
:1036900008604A680C4802404A600B680B480340C7
:1036A0000B60086820F4802008604FF41F004A680F
:1036B00022F4FE024A6088604FF00060044908600E
:1036C00070470000001002400000FFF8FFFFF6FE08
:1036D00008ED00E00000000000000000010203040B
:1036E0000607080919E050F8042BD30744BFA9F1D5
:1036F00001039A18091F0023042942F8043BF9D258
:103700005FEA817C134604D54FF0000CA2F800C09C
:103710009B1CC90744BF0021197050F8041B0029E5
:10372000E1D1704730B5016884684218416802EB06
:103730005103C9070BD54C4409E012F9011B12F8DB
:10374000015B002904F8015B05D5491CF9D19A42B7
:10375000F3D10C3030BD491EF1D5F8E710B507495B
:1037600079441831064C7C44163404E00A68081D7C
:10377000114488470146A142F8D110BD080000005D
:103780002400000061FFFFFF64230000A40000206C
:103790000000000091FFFFFF3C0100001800000046
:1037A0000000002000F00DF8002801D0FFF7D6FF40
:1037B000AFF300800020AFF30080FEF70FFA00F0B7
:1037C00002F80120704700F001B8000007463846B3
:1037D00000F002F8FBE7000080B5AFF30080024A7A
:1037E00011001820ABBEFBE726000200014880470D
:1037F0000148004789360008FD370008AFF3008014
:10380000AFF30080FFF7CEFF0000000001020304C9
:10381000FFF7FEBFFFF7FEBFFFF7FEBFFFF7FEBFDC
:10382000FFF7FEBFFFF7FEBFFFF7FEBFFFF7FEBFCC
:10383000FFF7FEBFFFF7FEBFFFF7FEBFFFF7FEBFBC
:10384000FFF7FEBFFFF7FEBFFFF7FEBFFFF7FEBFAC
:10385000FFF7FEBFFFF7FEBFFFF7FEBFFFF7FEBF9C
:10386000FFF7FEBFFFF7FEBFFFF7FEBFFFF7FEBF8C
:10387000FFF7FEBFFFF7FEBFFFF7FEBFFFF7FEBF7C
:10388000FFF7FEBFFFF7FEBFFFF7FEBFFFF7FEBF6C
:10389000FFF7FEBFFFF7FEBFFFF7FEBFFFF7FEBF5C
:1038A000FFF7FEBFFFF7FEBFFFF7FEBFFFF7FEBF4C
:1038B000FFF7FEBFFFF7FEBFFFF7FEBFFFF7FEBF3C
:1038C000FFF7FEBFFFF7FEBFFFF7FEBFFFF7FEBF2C
:1038D000FFF7FEBFEF0000018100F00002A24A04E2
:04000005080037FDBB
:00000001FF
