:020000040800F2
:1000000050270020652D0008612B0008632B000895
:10001000652B0008672B0008692B00080000000012
:100020000000000000000000000000006B2B000832
:100030006D2B0008000000006F2B0008712B0008DA
:10004000892D00088D2D0008912D0008952D0008A0
:10005000992D00089D2D0008A12D0008A52D000850
:10006000A92D0008AD2D0008B12D00087F2B000838
:10007000B52D0008B92D0008852B00088B2B000832
:10008000912B0008972B00089D2B0008BD2D000820
:10009000C12D0008C52D0008C92D0008CD2D000870
:1000A000D12D0008D52D0008D92D0008DD2D000820
:1000B000E12D0008E52D0008A32B0008E92D00081C
:1000C000ED2D0008F12D0008F52D0008F92D000890
:1000D000FD2D0008A92B0008B52B0008012E0008F3
:1000E000052E0008092E00080D2E0008112E00080C
:1000F000152E0008192E00081D2E0008212E0008BC
:10010000252E0008292E0008C92B00082D2E0008D6
:10011000312E0008352E0008392E00083D2E00082B
:10012000412E0008452E0008492E00084D2E0008DB
:1001300038B5040001D1012032BD00F022F808B921
:1001400000F023F800F013F800F024F8FFE7416115
:1001500000F001F832BD2068C16841F40051C1606F
:100160000020686020206870A8700020704724205C
:1001700068702068C16821F40051C160204600F019
:1001800038BA04F138056878704700212970204694
:1001900000F0CDBA2068016921F490410161206826
:1001A000416921F02A01704770B5044604F1380511
:1001B00013466878202831D109B1180001D10120F7
:1001C00070BD2878012829D001222A702162A384D9
:1001D000E3840020686021206870226B0FF2852084
:1001E0009062226B0FF2A920D062226B0FF2E920FD
:1001F00010630020266B70632068021D206B00F0E6
:10020000ACFB21686FF04000086000202870206877
:10021000416941F080014161002070BD022070BD44
:1002200038B5044604F138051346A87820283ED195
:1002300009B1180001D1012032BD2878012836D03B
:1002400001222A70A162A385002068602220A87084
:10025000626B0FF245209062626B0FF27520D062E4
:10026000626B0FF2752010630020626B50630A46C8
:100270002068011D606B00F070FB0020009020687A
:100280000168009142680092002200992A70C268B9
:1002900042F48072C2602068416941F0010141610D
:1002A0002068416941F040014161002032BD0220D7
:1002B00032BD38B5044604F13905206841692A7811
:1002C000212A09D1090607D500F017F808B100F076
:1002D0007EFB204600F025F9206841696A78222AD1
:1002E00009D1490607D500F00EF808B100F06FFB00
:1002F000204600F01FF9002032BD416921F0800145
:100300004161206B7047416921F040014161606BA0
:10031000704738B5044625682968EA686B6911F0AA
:100320000F0007D188065DD590065BD52046BDE855
:10033000324013E1D80702D412F4907F52D0C8079C
:1003400005D5D00503D5E06B40F00100E063480718
:1003500005D5D80703D5E06B40F00200E0638807BD
:1003600005D5D80703D5E06B40F00400E06308072B
:1003700005D5D80703D5E06B40F00800E063E06BDB
:1003800000286ED0890604D5900644BF204600F0B0
:10039000E5F820684069E16B0A0701D440061BD5E7
:1003A000204600F0C7F8206841694A060FD5FFF7DC
:1003B000AAFF60B10FF299114163606B00F020FB5E
:1003C00000284ED0606B416BBDE8344008472046A2
:1003D000BDE8324000F08FBC204600F08CFC0020CD
:1003E000E06331BD08062CD510062AD594F83900F3
:1003F000212836D1A168206AB1F5805F0DD101882E
:10040000C1F308016960206918B9216A881C20625B
:1004100007E0206A411C216203E0411C2162007850
:100420006860E08C401EE08480B2D0B92068C1686A
:1004300021F08001C1602068C16841F04001C160C5
:1004400031BD48060DD550060BD5E86820F04000B8
:10045000E860202184F839102046BDE8324000F0E1
:100460004BBC31BD416A00680268930644BF084630
:1004700000F042BC0020C8840868426922F0800273
:1004800042610868C16841F04001C16070470000E6
:10049000406A00F032BC0000416A006802689306BE
:1004A00013D40020C8850868C26822F48072C26034
:1004B000086842695208520042610868426922F0A5
:1004C00040024261202081F83A00084600F016BC44
:1004D000406A00F014BC000038B5446A20684069E6
:1004E00004F139052978212906D1000604D5002018
:1004F000E084204600F015F82068406969782229D8
:1005000006D1400604D50020E085204600F012F810
:10051000E06B40F01000E0632046BDE8324000F0A0
:10052000EABB0168CA6822F0C002CA60202180F8D4
:10053000391070470168CA6822F49072CA60016875
:100540004A69520852004A61202180F83A107047E7
:10055000406A0021C185C18400F0CDBB80B590F810
:100560003A10222943D18268B2F5805F14D1826AA1
:10057000016941B903685968C1F308011180826AB1
:10058000911C816218E001684B6803F0FF0313803F
:10059000816A4A1C82620FE001690029816A04D1E4
:1005A0004A1C82620268536805E04A1C8262026843
:1005B000536803F07F030B70C18D491EC18589B25A
:1005C00099B90168CA6822F02002CA600168CA6845
:1005D00022F48072CA6001684A69520852004A6176
:1005E000202180F83A1000F089FB002002BD022093
:1005F00002BD2DE9F0470446642521680A69E068D8
:1006000022F4405202430A611926CA683148024066
:10061000A06802432069024360690243CA604A69D4
:10062000A06922F4407202432B484A6181420ED1F4
:1006300000F0ACFD074600F0A9FD804600F0A6FDE5
:10064000814600F0A3FD824600F0A0FD0DE000F021
:1006500095FD074600F092FD804600F08FFD814633
:1006600000F08CFD824600F089FD06FB09F9616807
:1006700089007743B7FBF1F206FB08F7B7FBF1F30C
:10068000B9FBF1F7B7FBF5F705FB17331B01323365
:10069000B3FBF5F3B2FBF5F203F0F00303EB021347
:1006A00006FB0AF74643B7FBF1F2B6FBF1F0642113
:1006B000B0FBF1F005FB10252D0132356420B5FBB0
:1006C000F0F0216800F00F00C3188B60BDE8F087E0
:1006D00000000000F3E9FFFF0038014080B56848E2
:1006E000684900F011F818B1BDE8044048211AE04B
:1006F00001BD80B56448654900F006F818B1BDE851
:1007000004405B210FE001BD01604FF4E131416025
:1007100000218160C16001610C2141610021816182
:10072000C161FFF705BD0FF2781000F09FBE2DE903
:10073000F841044685B02068524A554D0FF26018C2
:10074000544F554E554990423FD1086840F480407F
:1007500008600222096801F4804104914FF400719D
:1007600000F085F84FF4806000F078F805F114008F
:10077000386000207860B8608020F8600020386120
:100780007861B861F861384600F0A4F810B18621AC
:1007900000F061F810206763B8647C620020F864A0
:1007A0007D648020386500207865B865F865386616
:1007B00007F1440000F08EF810B1962100F04BF8DC
:1007C00007F144002063BC6642E0304A90423FD1CA
:1007D000486840F4003048600222486800F4003065
:1007E0000490042100F043F8082000F037F807F1E6
:1007F000880605F12800306000207060B06080201D
:10080000F060002030617061B061F061304600F04E
:1008100061F810B1C12100F01EF86663746205F141
:100820003C00706407F1CC051020B0640020F06437
:100830008020306500207065B065F0653066284620
:1008400000F048F810B1D12100F005F82563B46636
:1008500006B0BDE8F081404600F008BE00900021DF
:100860000120019102906946304600F001BE0498D3
:1008700000910320039001926946304600F0F8BDD4
:100880009022002000380140D02200200044004087
:10089000440002401C2000200008014018100240C3
:1008A000453A5C55736572735C626572747A5C4438
:1008B0006F63756D656E74735C4769744875625CCF
:1008C000445376312E345C5372635C757361727479
:1008D0002E63000030B508B9012030BD0268DFF892
:1008E000B0138A4200F1280306D2DFF8A81300F003
:1008F0002DF8DFF8A41305E0DFF8A01300F026F8C8
:10090000DFF89C135961022180F8211014684168B6
:100910006FF30D140C4381680C43C1680C430169EB
:100920000C4341690C4381690C43C1690C43146059
:100930000021196059609960D9601961012180F81E
:100940002110002180F82010002030BD8C181425C3
:10095000B4FBF5F4A4009C617047F8B5044600258B
:1009600094F82000012801D10220F2BD94F8210062
:100970000126012884F8206024D1022684F8216011
:1009800004F12C06F560206807687F087F00076087
:10099000204600F09FF92168306820B10A6842F0D3
:1009A0000E020A6008E0086820F004000860206871
:1009B000016841F00A0101602068026842F001020A
:1009C000026002E084F8205002252846F2BD10B5EE
:1009D00001680A6822F00E020A6000F13C020B680E
:1009E0005B085B000B60012451688C4011684C600F
:1009F0000122002180F8212080F82010002010BD65
:100A0000F8B590F821200024022A00F1340103D027
:100A10000420486001245FE00268DFF88862136800
:100A200023F00E0313604FF48077026815686D0899
:100A30006D0015604FF480320368B3424FF4805567
:100A400019D9DFF84C62B34208BF012210D0DFF899
:100A50005862B34208BF10220AD0DFF85062B34296
:100A600008BF3A4604D0DFF84862B34208BF2A46BE
:100A7000DFF8403227E0DFF840C263451CD0DFF8E2
:100A80003CC263451AD0DFF838C2634518D0DFF89E
:100A90003472BB420EBF2A46DFF82C52AB4210D054
:100AA000DFF82852AB4208BF4FF4801209D0B3429E
:100AB00007D14FF0807204E0012202E0102200E032
:100AC0003A46DFF80C321A60012280F8212080F8C3
:100AD0002040096801B188472046F2BD2DE9F84F52
:100AE00000F1280204275169734BD1F800E0046833
:100AF0006C4925689669DFF8BC81DFF8B491DFF8AE
:100B0000ACA1DFF8A4B1DFF888C1B7401EEA070F37
:100B10004AD06F0748D52568AD0603D4256825F06F
:100B2000040525604FF4802407688F424FF4804508
:100B30004FF4806611D9674508BF04240AD05F4589
:100B400008BF402406D0574508BF344602D04F4561
:100B500008BF2C46C8F8004020E09F4217D0574BF2
:100B60009F4216D0564B9F4215D0564B9F420EBF08
:100B70002C46554B9F420FD0544B9F4208BF4FF419
:100B8000800409D08F4207D14FF0806404E0042430
:100B900002E0402400E034464D490C6051680029D1
:100BA00074D0BDE8F44F08470227B7401EEA070F8C
:100BB0004FD0AF074DD52568AD0606D4256825F082
:100BC0000A052560012480F821404FF400340768AD
:100BD0008F424FF400554FF4007611D9674508BF96
:100BE00002240AD05F4508BF202406D0574508BF1D
:100BF000344602D04F4508BF2C46C8F8004020E0DC
:100C00009F4217D02D4B9F4216D02D4B9F4215D09F
:100C10002C4B9F420EBF2C462B4B9F420FD02B4B91
:100C20009F4208BF4FF4001409D08F4207D14FF004
:100C3000007404E0022402E0202400E03446244949
:100C40000C60002180F820101168F9B1BDE8F44F64
:100C50000847082101FA06F61EEA060F16D02907F2
:100C600014D5216821F00E012160012391698B4088
:100C700051694B6001230021136180F8201080F836
:100C80002130916811B1BDE8F44F0847BDE8F18FFC
:100C900008040240F8FFFDBF00000240F8FBFDBF62
:100CA00000040240800002401C0402403004024064
:100CB0004404024004040240080002401C000240B8
:100CC0003000024044000240580002406C000240E4
:100CD0000400024038B5046C0125A540C46B656072
:100CE000046863604068102802D1A260E16031BDF1
:100CF000A160E26031BD7047704770477047704730
:100D00002DE9F8430646DFF898543078C1074AD5F4
:100D1000686800F00C00042807D0686800F00C0038
:100D200008280BD16868C10308D5296888033AD51B
:100D30007068002840F0C080012069E17068B0F55B
:100D4000803F0FD038B9296821F4803129602868A4
:100D500020F4802009E0B0F5A02F296807D141F4E4
:100D600080212960286840F48030286006E021F462
:100D7000803129602A6822F480222A60706868B174
:100D800000F070FC04462968880300F1958000F0AB
:100D900069FC001B6528F6D3032039E100F062FCF2
:100DA00004462868810340F1878000F05BFC001B4B
:100DB0006528F6D3F0E700F055FC001B022840F24E
:100DC000AA80E9E7306970B10121396000F04AFC7E
:100DD00004462868810700F1DC8000F043FC001B1A
:100DE0000228F6D9D8E7386000F03CFC04462868B1
:100DF000810765D500F036FC001B0228F7D9CBE748
:100E0000086000F02FFC0446686A810777D500F07F
:100E100029FC001B0228F7D9BEE708B9286A09E0B7
:100E20000528286A06D140F004002862286A40F0AC
:100E3000010005E0400840002862286A20F0040014
:100E4000286241F28938F06868B100F00BFC8146F5
:100E5000286A810700F1AA8000F004FCA0EB0900D9
:100E60004045F5D398E700F0FDFB8146286A8107ED
:100E700040F19C8000F0F6FBA0EB09004045F5D363
:100E80008AE700F0EFFB001B022840F2A28083E714
:100E900000F0E8FB001B022840F2B5807CE700F080
:100EA000B9F804462868810140F1B18000F0DAFB0E
:100EB000001B0228F6D96FE73078DFF8F07281075F
:100EC0001BD5686810F00C0F09D0686800F00C00A2
:100ED00008287FF477AF6868C1033FF573AF2968CE
:100EE000880703D5306901287FF426AF2968706927
:100EF00021F0F80141EAC0012960317808071DD5C9
:100F0000B069DFF8AC1200283FF47AAF01220A6022
:100F100000F0A8FB0446686A81077FF54CAFDFF854
:100F200084120868C0084FF47A72B0FBF2F20092A3
:100F300000BF0098411E00280091F9D13078410788
:100F400039D5E8690024C10009D4E86940F080502F
:100F5000E8610124E86900F0805000900098DFF813
:100F60005482D8F80010C8051BD4D8F8000040F40B
:100F70008070C8F8000000F075FB8146D8F80010BA
:100F8000C8050ED400F06EFBA0EB09006528F5D370
:100F900002E72868716920F0F80040EAC100286083
:100FA000ABE7F06801287FF438AF3FE71CB1E86990
:100FB00020F08050E861F06948B3696801F00C01E5
:100FC00008293FF4B9AE02287FF469AF00F022F897
:100FD0000446286881013FF554AF306AB0F5803F80
:100FE00005D16968B06821F400310143696069681E
:100FF000306A21F474110143706A01436960012071
:1010000000F009F80446286881017FF541AF00200F
:10101000BDE8F2830020386600F024BB2DE9F843D8
:10102000654F05463868894600F00700484502D2FA
:1010300000F07AF86CD12978594C880705D5616899
:10104000A86821F0F001014361602878C10757D5F5
:101050006868012802D121688A0303E0022803D1CD
:1010600021688A0103D453E02268910750D5616852
:10107000890840EA8100606041F2893800F0F2FAA4
:101080000646686801280BD1606800F00C0004284F
:1010900036D000F0E7FA801B4045F5D303202DE061
:1010A000022837D1606800F00C00082828D000F032
:1010B000D9FA801B4045F5D3F0E72878410705D5DC
:1010C0006168E86821F4E061014361602878010704
:1010D00006D56068296920F4605040EAC10060606C
:1010E00000F02CF862683549C2F30312895C2D4A7E
:1010F000C8401060002000F0BBFA0020BDE8F28379
:10110000386800F007008145D7D200F00DF8D4D040
:101110000120F3E7606810F00C0FF1D000F0A2FAA4
:10112000801B4045F6D3B9E73968C90849EAC101CF
:101130003960386800F007004845704720490A6860
:1011400002F00C00082814D10FF28003C2F3834090
:10115000D203185C0AD509680FF28003124AC1F362
:101160004041595CB2FBF1F148437047154948438F
:1011700070470D4870470B48006870470948104A8F
:10118000006813681049C3F3022206E005480C4AC0
:10119000006813680C49C3F3C222895CC8407047D9
:1011A000001002400000002000127A0000004242BD
:1011B000800442420070004000200240542C00088D
:1011C0000410024000093D00802D000802030405C0
:1011D000060708090A0B0C0D0E0F10100102000083
:1011E00038B500F059FA00F09CF800F067FA00F00A
:1011F000CBFAFFF773FAFFF77CFA00F0D5FA00F0AC
:1012000069FB00F0D7FB00F0F5FB002200211E2057
:1012100000F086FC1E2000F0A0FC002200213220FD
:1012200000F07EFC322000F098FC002200212520F6
:1012300000F076FC252000F090FC00220021262002
:1012400000F06EFC262000F088FC002200210B201C
:1012500000F066FC0B2000F080FC002200210E2034
:1012600000F05EFC0E2000F078FC002200210F2030
:1012700000F056FC0F2000F070FC0022002110202E
:1012800000F04EFC102000F068FC0022002111202C
:1012900000F046FC112000F060FC0022002112202A
:1012A00000F03EFC122000F058FC00F091FC6B4C6A
:1012B0006B4D204600F0C7FC284600F0C4FC00F04F
:1012C0006BFE00F01BFF00F028FF204600F0BBFC87
:1012D000284600F0B8FC00F07CFC624C00F063FE95
:1012E00000F052FF04F1180001F0ADF800F0BBFF70
:1012F00004F1300001F0D8F8A07C012809D104F1F4
:10130000180001F001F904F1300001F014F9002097
:10131000A074207C0028E1D000F082FE002121741E
:10132000DCE700B5002195B001200D910B90022162
:1013300012914FF480300C90012213904FF4E01181
:101340000F9214910BA8FFF7DBFC00B1FEE70F2111
:1013500002200091019000214FF4806002910390DF
:10136000049168460221FFF759FE00B1FEE7022012
:1013700005904FF40041079105A801F019F900B15B
:10138000FEE7FFF7F8FE4FF47A71B0FBF1F000F0E2
:10139000EEFB042000F0FFFB002200214FF0FF30A5
:1013A00000F0BEFB15B000BD38B505462B482A68D5
:1013B00001682C4C914220D110212B4800F023F9D8
:1013C0002070002804BF617800290FD1E07990B91E
:1013D000A078A188401CA070C0B281420BD2A07935
:1013E00048B90121A171A070E17104E00020A07052
:1013F000E080012020722078607019482A68016816
:1014000091422AD1E08A401CE08280B2332814DB6A
:101410000020E082607C40B100F000FC00F0F3FBB3
:1014200000F0F6FB00F0E2FB07E000F0F4FB00F058
:10143000E2FB00F0E4FB00F0D3FBA08A401C80B28A
:1014400040F22D11884202DB0120A0740020A0820E
:10145000E068512824BF401EE06031BD102200200A
:10146000502200208421002000100140FEE70000EF
:101470002DE9F84F83460F46002080466A496B4AA3
:101480006B4B4FF00F094FF0010A3C680AFA08F65F
:1014900006EA040EB64540F0AE807C683CB3012CF1
:1014A0001AD0022C1DD0032C2ED0112C16D0122CA9
:1014B0001AD0604DAC421CBF5F4DAC4217D05F4D9F
:1014C000AC421CBF5E4DAC4211D05E4DAC421CBF65
:1014D0005D4DAC420BD018E0F86816E0F868001DCE
:1014E00013E0F868083010E0F8680C300DE0B868D8
:1014F00008B9042009E0012819BF0820CBF81460BE
:101500000820CBF8106000E00020BEF5807F03D2F9
:10151000DC464FEA880404E0A8F108040BF1040C4F
:10152000A400DCF8005009FA04F6B54300FA04F40C
:101530002C43CCF800407C68E4005CD51C6844F087
:1015400001041C604FEA980C1D6805F00105009528
:10155000009C52F82C604FEA880404F00C0409FA4D
:1015600004F526EA0505394EB34508BF002618D014
:10157000374EB34508BF012613D0364EB34508BFDA
:1015800002260ED0344EB34508BF032609D0334E91
:10159000B34508BF042604D0314EB3450CBF052621
:1015A000062606FA04F42C4342F82C406FEA0E0695
:1015B0007C68E50304D50D684EEA05050D6002E080
:1015C0000C6834400C607C68A5034C684CBF4EEA44
:1015D000040434404C607C68E5028C684CBF4EEAE1
:1015E000040434408C607C68A502CC684CBF4EEA91
:1015F00004043440CC6008F10108B8F10F0F7FF605
:1016000044AFBDE8F18F8068084018BF0120C0B228
:10161000704781B002B90904016101B07047C26826
:101620005140C160704700000004014008000140C3
:1016300018100240000011100000121000002110CC
:10164000000022100000311000003210000801409C
:10165000000C01400010014000140140001801403E
:10166000001C014001480068704700BF482300206B
:1016700010B508490A6804464FF47A70B2FBF0F0DE
:1016800000F075FA002221464FF0FF3000F048FAD2
:10169000002010BD0000002080B50748016841F01F
:1016A00010010160032000F02EFA0020FFF7E0FF98
:1016B00000F0F2FF002002BD00200240F0B52E48ED
:1016C0002E4C2F4E85B0016841F01001016042F2AE
:1016D0004207026802F01002049243F26025049966
:1016E000016841F020010160026802F020020492CA
:1016F0000499016841F004010160026802F00402EB
:10170000049200220499016841F008010160394601
:10171000006800F00800049004982046FFF779FF65
:10172000002229463046FFF774FF01200221019074
:101730000391009769462046FFF79AFE0220002198
:1017400000900191029169460E48FFF791FE10202A
:101750000090002101200191029069462046FFF788
:1017600087FE0120022101900391009569463046D1
:10177000FFF77EFE05B0F0BD1810024000100140DA
:10178000000C014000080140064881B0016841F0AA
:1017900001010160006800F001000090009801B0B4
:1017A000704700BF141002403EB5374C37480FF267
:1017B000F00520604FF48070A0600020E060606160
:1017C0004FF46020E061002060600220206120462C
:1017D00000F0A8FF18B145212846FFF747FE0C206E
:1017E000009001210720019102906946204601F0F6
:1017F00099F818B14F212846FFF738FE1020022132
:10180000009001912046694601F08CF818B15821EA
:101810002846FFF72BFE37BD30B5044685B020685B
:101820001A4988422ED11A481A4D016841F40071B4
:1018300001600421006800F4007000900322009809
:1018400015480191029201A9FFF712FE002068607D
:10185000A8608020E8604FF4007028614FF40060B9
:1018600068612020A86100200C49E86129602846B1
:10187000FFF730F820B17C210FF22400FFF7F6FDCE
:1018800025626C6205B030BD1023002000240140A9
:1018900018100240CC210020001001400800024036
:1018A000453A5C55736572735C626572747A5C4428
:1018B0006F63756D656E74735C4769744875625CBF
:1018C000445376312E345C5372635C6164632E63DF
:1018D0000000000080B52648264901604FF482715F
:1018E0004160002181604FF40061C160022101610B
:1018F000012141614FF4007181611021C16100211A
:101900000162416281620A21C16201F0B9F830B11D
:10191000BDE8044045210FF26800FFF7A7BD01BDF7
:1019200000681449884200D0704718B51248134C1B
:1019300085B0016841F480510160A021006800F485
:10194000805000900222009801910320049002929E
:1019500001A92046FFF78CFD402000210190029153
:101960000391204601A9FFF783FD06B010BD0000DA
:101970002C210020003001401810024000080140D6
:10198000453A5C55736572735C626572747A5C4447
:101990006F63756D656E74735C4769744875625CDE
:1019A000445376312E345C5372635C7370692E63DA
:1019B000000000003A4838B53A4C0FF2F8052060B4
:1019C00086B0472060600020A060632000F03DF8F2
:1019D00010B1402100F036F800F02DF810B146218A
:1019E00000F030F800F038F810B14D2100F02AF87E
:1019F00007B030BD2C4838B52C4C0FF2B80520602C
:101A000086B0472060600020A06040F2E73000F020
:101A10001CF810B15F2100F015F800F00CF810B1BF
:101A2000652100F00FF800F017F810B16C2100F0FC
:101A300009F807B030BD4FF48050029002A920464B
:101A400000F0C2B92846FFF711BDE0600020206118
:101A5000A061204600F0EAB800200090019069469D
:101A6000204601F04FB881B000680D4A10499042FD
:101A700007D1086840F004000860096801F004011B
:101A800009E0094A904208D1086840F0080008605F
:101A9000096801F008010091009801B0704700004A
:101AA0000008004010220020000C004050220020BE
:101AB0001C100240453A5C55736572735C62657236
:101AC000747A5C446F63756D656E74735C4769749A
:101AD0004875625C445376312E345C5372635C7497
:101AE000696D2E63000000000901002881B006D551
:101AF0002F4A00F00F00104400F8041C01E02D4AAA
:101B0000115401B070472C4A13684FF6FF010002D0
:101B10000B4000F4E0601843284908431060704708
:101B200038B5254B1C68C4F30223C3F10704052C08
:101B300028BF04241D1D072D34BF0023DB1E0125F3
:101B400005FA04F4641E2140994005FA03F35B1E74
:101B50001A401143BDE83440C6E7012200F01F01DE
:101B6000174BFFE78A40400943F82020704710B523
:101B7000401EB0F1807F01D3012010BD114C606088
:101B80000F214FF0FF30FFF7AFFF0022A2600720C8
:101B90002060002010BD04280A4904D1086840F0E4
:101BA0000400086070470A6822F004020A60704767
:101BB00018ED00E000E400E00CED00E00000FA05A4
:101BC00000E100E010E000E000F000B87047000025
:101BD00070470122FFE74FF400711248FFF719BD6B
:101BE00000224FF400511048FFF713BD4FF400518D
:101BF0000D48FFF714BD01224FF40051EDE700221C
:101C00004FF40051E9E74FF400510648FFF707BDD4
:101C10004FF48051F9E700224021DEE70122402104
:101C2000DBE70000000C01400010014038B5040063
:101C300001D1012032BD00F01FF818B900F018F8EA
:101C4000FFF711FF0AE00068C16841F00101C160BF
:101C5000026842F0010202600020704702206870B2
:101C6000211D206800F01BF901206870002032BDA2
:101C7000002129702046704704F13C0568787047C0
:101C800010B50446206801698A0715D5C1688A071E
:101C900012D56FF00202026101212177806910F0F4
:101CA000030F204602D000F052FF03E000F050FF87
:101CB00000F087F800202077206801694A0715D5D1
:101CC000C1684A0712D56FF0040202610221217730
:101CD000806910F4407F204602D000F038FF03E016
:101CE00000F036FF00F06DF80020207720680169D1
:101CF0000A0715D5C1680A0712D56FF008020261FC
:101D000004212177C06910F0030F204602D000F0B3
:101D10001EFF03E000F01CFF00F053F800202077C6
:101D200020680169CA0615D5C168CA0612D56FF0C8
:101D30001002026108212177C06910F4407F20461B
:101D400002D000F004FF03E000F002FF00F039F8D9
:101D50000020207720680169CA0708D5C168CA0732
:101D600005D56FF0010202612046FFF71DFB2068D8
:101D700001690A0608D5C1680A0605D56FF0800218
:101D80000261204600F0E5FE206801694A0608D598
:101D9000C1684A0605D56FF040020261204600F096
:101DA000D9FE206801698A060AD5C1688A0607D566
:101DB0006FF0200202612046BDE8104000F0CBBE6B
:101DC00010BD204600F0C8BE38B500F05DF801D166
:101DD000022032BD01222270022060702A68DFF8E2
:101DE00034019368034093600868002837D01028B6
:101DF00037D0202837D0302837D040282BD0502853
:101E00001ED0602820D070280BD0B0F5805F03D0A2
:101E1000B0F5005F0CD02CE028688168C908C900C3
:101E20000CE000F028F82868816841F0770105E0AF
:101E300000F021F82868816841F48041816018E051
:101E400000F01EF8502111E0CA684968286800F0C7
:101E50007CF860210AE000F013F8402106E0002140
:101E600004E0102102E0202100E03021286800F089
:101E70007EF80FE00000CB684A68896828687EE039
:101E8000CA684968286851E0054605F13C04207895
:101E900001287047012060700020207032BDF0B52D
:101EA000DFF874C01D4F03681D4C1E4D1E4E60456B
:101EB00018BFB84208D0B0F1804F18BFB04203D06D
:101EC000A84218BFA0420DD14A6823F07003134303
:101ED000604518BFB84207D0B0F1804F1CBFB04278
:101EE000A84201D0A04203D1CA6823F4407313432F
:101EF0004A6923F080031343036060458A68C26225
:101F00000A68826212BFB842096901630121416116
:101F1000F0BD00008800FFFF002C014000340140AC
:101F2000000C0040000800400004004010B5036AA7
:101F3000046A64086400046223F00A03846924F0DC
:101F4000F00444EA0214846123E010B5036A23F02C
:101F5000100303628369046A23F4704343EA023383
:101F600024F0A004836144EA0114046210BD826875
:101F700022F07002114341F007018160704710B5F3
:101F8000846824F47F442143114341EA03218160A2
:101F900010BD1943016210BD164814218180002133
:101FA000C1600020704770B5124D134CE8790026CF
:101FB00010B1E968642902D22670FFF72CFEA979D6
:101FC00000291CBF287A002811D00C49E9600120A3
:101FD0002070FFF723FE0A48B1210170C68001215D
:101FE0004170468000F0F5F9064600202872304620
:101FF00070BD00008421002095210020F45F0100C5
:102000009C21002010B502460123107803E09BB20A
:10201000D45C60405B1C9CB28C42F8D3C0B210BD53
:1020200080B5DFF8400501214170B2210170002127
:102030004180C18000F0D5F9DFF82C15487302BD4E
:1020400038B504460A46A07AC8B90121A1725D21BB
:102050002078507060789070E078D070A07810711F
:10206000E0881518C01DA9712081C11E89B2501CBD
:10207000FFF7C8FF687101210020A17420750020BE
:1020800032BD1CB500680168CA060BD5002000905F
:10209000DFF8D84400F019F8606B01684868DFF891
:1020A000D0141BE013BD1CB500680168CA060BD52F
:1020B00000200090DFF8BC4400F007F8606B016876
:1020C0004868DFF8B41409E013BD20680168009186
:1020D0004068009020460099FEF7EBB8C0F500601C
:1020E000488002B0087840F0010001F8040B4FF47A
:1020F00000622046BDE81040FEF792B880B5DFF8D8
:102100006C0400F01FF8DFF87414FEF789F8DFF8AC
:10211000701400F01FF8002002BD80B5DFF85404F1
:1021200000F010F8DFF85C14FEF77AF8DFF85814C6
:1021300000F010F800220221DFF85004FFF769FADE
:10214000002002BD0168CA6842F01002CA604FF464
:10215000006270475B2008705B21DFF83404017077
:102160005D214171704780B50A460146DFF8FC03E6
:10217000FEF71AF8010018BF012002BD0A46014609
:10218000DFF8F003FEF710B8F8B5DFF8E4231078B5
:10219000C10766D500F0FE001070DFF8CC43A07CCC
:1021A000002804BFE07C00285BD1E588208A5188A4
:1021B000DFF8CC33A8421FD2F0B1002001E0401C70
:1021C00080B288424DDA268A02F1040E5F1D00EBD0
:1021D000060C1EF800E007F80CE0761C2682B6B26A
:1021E000B542ECD100F0CBF832D100F0CFF8864206
:1021F00036D10120E07434E02089002831D11579EE
:102200005B2D2FD1507900F0F005A02D04BF567A38
:102210005D2E06D100F0C0F8854222D10120207544
:102220001FE000F093F838B9907A5D2819D100F0DA
:10223000BDF88542DDD013E0052501E06D1CADB28F
:102240008D420EDA00F092F8F8D100F079F803D060
:1022500000202082E08003E000F0AFF88542C8D083
:10226000B4E00020F2BDF8B5DFF80C231078C10708
:1022700064D500F0FE001070BA4CA07C002804BFAA
:10228000E07C00285AD1E588208A5188BE4BA842BC
:102290001FD2F0B1002001E0401C80B288424DDA2C
:1022A000268A02F1040E5F1D00EB060C1EF800E00A
:1022B00007F80CE0761C2682B6B2B542ECD100F0ED
:1022C0005EF832D100F062F8864236D10120E07427
:1022D00034E02089002831D115795B2D2FD1507938
:1022E00000F0F005A02D04BF567A5D2E06D100F057
:1022F00053F8854222D1012020751FE000F026F816
:1023000038B9907A5D2819D100F050F88542DDD0B7
:1023100013E0052501E06D1CADB28D420EDA00F030
:1023200025F8F8D100F00CF803D000202082E080DE
:1023300003E000F042F88542C8D047E00020F2BD3B
:1023400002F10A01B6B2895D5D2970472070967965
:102350006670157AA570D779E7701D7158709E70F8
:10236000DF7005EB0725E580E0887047161D765D78
:102370005E55268A761CB7B2B84226827047511D38
:102380000E5C2671104480795D287047ED1DE91EB2
:10239000258189B2581C35E6E072032190792073BB
:1023A000D0796073501D157AA5732BE60720557AF6
:1023B000208125710421581C24E6511DC01D4D5D4E
:1023C0002081C11E257189B2581C1BE60020208186
:1023D000F2BD38B50446E07C08B1002032BD684D3E
:1023E00006E038B50446E07C08B1002032BD664DF9
:1023F00029462046FFF724FE21892846BDE83840BB
:102400004FF6FF72AFE610B500F013F820714FF6EB
:10241000FF722046BDE810400621A4E610B500F08A
:1024200008F820714FF6FF722046BDE810400621E3
:10243000A4E6574CC17A6170017BA1700321407BF7
:10244000E070601CDEE538B504460025E07C01281C
:1024500028D1207800F0F001B02908D0C02911D08F
:10246000D02912D0E02912D0F02912D014E0AB21EB
:10247000B228E17211D10220207365730120454911
:1024800008700AE0AC21E17207E0AD2002E0AE2066
:1024900000E0AF20E07200E004252046FFF7B3FF24
:1024A00000F029F8284632BD38B504460025E07C06
:1024B00001281ED1217801F0F001B02908D0C029EF
:1024C00008D0D02908D0E02908D0F02908D00AE0A7
:1024D000AB2006E0AC2004E0AD2002E0AE2000E03E
:1024E000AF20E07200E004252046FFF797FF00F0E0
:1024F00002F8284632BD0020A072E074E080E0704F
:10250000A07020822081704710B504460020A17C75
:1025100001290FD1227D012A02D0617D052900DB2E
:102520003AE0218916484FF6FF72FFF71CFE617DE5
:10253000491C617510BD10B504460020A17C01291D
:102540000FD1227D012A02D0617D052900DB23E025
:1025500021890D484FF6FF72FFF710FE617D491C7F
:10256000617510BDB42100209C2100209022002024
:1025700014100020D022002018180020181000206D
:10258000040000201C1800200C080020001001404E
:102590004023002094210020A072A0746075207553
:1025A000E074E080E070A0702082208110BD000007
:1025B0002DE9FC410646354D3078C10750D5A86954
:1025C0000024C10009D4A86940F08050A86101240A
:1025D000A86900F08050009000982D4F3968C80518
:1025E00017D4386840F480703860FFF73BF88046B5
:1025F0003968C8050DD4FFF735F8A0EB0800652849
:10260000F6D303203FE0FFF72DF8C01B404519D358
:10261000F7E7E86910F440701EBF716801F440717B
:10262000884212D01B49E86901220A6020F44070F8
:1026300000220A60E861C00707D5FFF713F80746D4
:1026400041F28938E8698107DDD5E969706821F4CC
:1026500040710143E9611CB1A86920F08050A86174
:102660003178880705D52A68B06822F440420243D1
:102670002A603078C10605D52968706921F4800187
:10268000014329600020BDE8F681000004100240EB
:10269000007000404004424280B52048016841F08B
:1026A00001010160006800F0010000900098032023
:1026B000FFF729FA002200216FF00B00FFF730FA34
:1026C000002200216FF00A00FFF72AFA0022002101
:1026D0006FF00900FFF724FA002200216FF00400D8
:1026E000FFF71EFA002200216FF00300FFF718FA2F
:1026F000002200216FF00100FFF712FA00220021F2
:102700004FF0FF30FFF70CFA0548016821F0E06157
:102710000160026842F00072026001BD18100240C0
:1027200004000140F8B5044600270026002C7AD0AA
:1027300004F12405686820B9AE6028702046FFF7D0
:102740006BF8204600F07AF96968CA066CD401007B
:102750006AD1696821F4885141F0020169602368F7
:10276000DFF8BC12E269D4F804C08B4204BFB2F5B2
:10277000402F4FF40022E16842EA0C02D4F808C06E
:10278000BCF5807F14BFBCF1010F4FF48077D4F803
:1027900014C0BCF1010F42EA41020FD131B9A16965
:1027A000491E490341F400610F4307E0696841F0A5
:1027B00020016960A96841F00101A960596821F40C
:1027C00069410F435F602368DFF858129F680F402C
:1027D00017439F60A168B1F5807F18BF012902D11E
:1027E0002669761E36052168CB6A23F470031E43E2
:1027F000CE622468DFF83012A3680B40934208D100
:102800000021A960696821F0020141F001016960BD
:10281000F2BD686820F0020040F010006860A8680F
:1028200040F00100A86003E0686840F010006860B4
:102830000120F2BD10B5044621684868820622D501
:102840000A6890071FD5A06AC20603D4A06A40F4A4
:102850000070A06200F05AF804BFE06800280BD1B5
:102860004A6822F020024A60A06A20F48070A062C8
:10287000A06AC10400F050F8204600F06EF921680B
:102880006FF0120008602168486802062BD50A68BC
:10289000500728D5A06AC20603D4A06A40F40050AD
:1028A000A062886800F4E040B0F5E04F08D04868C6
:1028B000420511D400F02AF804BFE06800280BD1CB
:1028C0004A6822F080024A60A06A20F48050A06228
:1028D000A06AC10500F020F8204600F03FF9216809
:1028E0006FF00C000860206841684A060DD500684A
:1028F000C1070AD5A06A40F48030A062204600F0EB
:102900002EF921686FF00100086010BD886800F49E
:102910006020B0F5602F704703D4A06A40F001003A
:10292000A0627047F8B50A46002100F12403009127
:102930001C78012C01D10220F2BD01251D701F273A
:10294000546815680668072C08D2641E04EB8404DA
:10295000D6F834C000F05EF8756312E00D2C08D292
:10296000E41F04EB8404D6F830C000F053F835635C
:1029700007E00D3C04EB8404D6F82CC000F04AF8C4
:10298000F56207271668946805680A2E08D30A3E80
:1029900006EB4606D5F80CC000F036F8EC6006E011
:1029A00006EB4606D5F810C000F02EF82C6114682E
:1029B000102C18BF112C23D100681D4CA0421AD135
:1029C0001C48046825021BD4056845F40005056011
:1029D0001068102814D1154C17482568B5FBF0F085
:1029E0000A2250430090009800281EBF009A521EF1
:1029F0000092F8D104E00121586840F020005860AE
:102A0000002018700846F2BDB7402CEA0707B44012
:102A10003C437047A7402CEA0707A5403D43704759
:102A2000003C0140FDF7E1FFFE0E1FFF000000200B
:102A3000002401400824014040420F0038B50446FC
:102A400020688168CA0719D58168490849008160F2
:102A5000FEF708FE054620688168C8070ED5FEF718
:102A600001FE401B0328F6D3A06A40F01000A062CC
:102A7000E06A40F00100E062012032BD002032BD7A
:102A800010B5040001D1012010BD0020A06294F80F
:102A9000510010B92046FEF743FF022184F851107F
:102AA0002068016821F0400101606268A068A169A6
:102AB0000243E0680243206902436069024301F473
:102AC0000071E0690A430243206A0243A06A02439C
:102AD00020680260A169606A090C01F004010143E9
:102AE000206841602068E16A01612068C16921F4C1
:102AF0000061C16100206065012084F85100002060
:102B000010BD000030B500F13C031A78012A01D154
:102B1000022030BD01241C7002225A7002685468E1
:102B200024F070045460046865680A6815436560A1
:102B30000268946824F0800494600268946848688D
:102B400004439460012058700020187030BD704715
:102B500070477047704770477047704770477047BD
:102B60007047FEE7FEE7FEE7FEE7704770477047F5
:102B700080B500F041F8BDE80140FFF725B81448E2
:102B8000FDF7ACBF1348FDF7A9BF1348FDF7A6BF7B
:102B90001248FDF7A3BF1248FDF7A0BF1148FFF789
:102BA00049BE1148FFF76CB810B5104C2046FFF72E
:102BB00068FA04E010B50E4C2046FFF774FA204680
:102BC000BDE81040FDF7A5BB0A48FFF759B8000063
:102BD000CC210020602000201C200020A420002008
:102BE000E820002010230020102200209022002046
:102BF000D02200205022002002480168491C0160B8
:102C0000704700BF482300200E49086840F00100CB
:102C100008604A680C4802404A600B680B48034051
:102C20000B60086820F4802008604FF41F004A6899
:102C300022F4FE024A6088604FF000600449086098
:102C400070470000001002400000FFF8FFFFF6FE92
:102C500008ED00E000000000000000000102030495
:102C60000607080919E050F8042BD30744BFA9F15F
:102C700001039A18091F0023042942F8043BF9D2E2
:102C80005FEA817C134604D54FF0000CA2F800C027
:102C90009B1CC90744BF0021197050F8041B002970
:102CA000E1D1704710B450F8041B79B10268436851
:102CB00002440830DC0744BFA9F10104E31852F8CC
:102CC000044B43F8044B091FF9D1ECE710BC7047E3
:102CD00010B5074979441831064C7C44163404E099
:102CE0000A68081D114488470146A142F8D110BD69
:102CF00008000000280000006DFFFFFF48230000CF
:102D000004000020000000009DFFFFFF0400000001
:102D100040010000000000200000000000F00DF85D
:102D2000002801D0FFF7D4FFAFF300800020AFF3FD
:102D30000080FEF755FA00F002F80120704700F01D
:102D400001B800000746384600F002F8FBE7000033
:102D500080B5AFF30080024A11001820ABBEFBE73C
:102D6000260002000148804701480047092C00085E
:102D7000752D0008AFF30080AFF30080FFF7CEFFA2
:102D80000000000001020304FFF7FEBFFFF7FEBFD3
:102D9000FFF7FEBFFFF7FEBFFFF7FEBFFFF7FEBF67
:102DA000FFF7FEBFFFF7FEBFFFF7FEBFFFF7FEBF57
:102DB000FFF7FEBFFFF7FEBFFFF7FEBFFFF7FEBF47
:102DC000FFF7FEBFFFF7FEBFFFF7FEBFFFF7FEBF37
:102DD000FFF7FEBFFFF7FEBFFFF7FEBFFFF7FEBF27
:102DE000FFF7FEBFFFF7FEBFFFF7FEBFFFF7FEBF17
:102DF000FFF7FEBFFFF7FEBFFFF7FEBFFFF7FEBF07
:102E0000FFF7FEBFFFF7FEBFFFF7FEBFFFF7FEBFF6
:102E1000FFF7FEBFFFF7FEBFFFF7FEBFFFF7FEBFE6
:102E2000FFF7FEBFFFF7FEBFFFF7FEBFFFF7FEBFD6
:102E3000FFF7FEBFFFF7FEBFFFF7FEBFFFF7FEBFC6
:102E4000FFF7FEBFFFF7FEBFFFF7FEBFFFF7FEBFB6
:042E500000A24A048E
:0400000508002D754D
:00000001FF
