:020000040800F2
:10000000602700204D300008492E00084B2E0008C4
:100010004D2E00084F2E0008512E00080000000051
:10002000000000000000000000000000532E000847
:10003000552E000800000000572E0008592E000819
:100040007130000875300008793000087D300008F4
:100050008130000885300008893000088D300008A4
:10006000913000089530000899300008672E00088C
:100070009D300008A13000086D2E0008732E000886
:10008000792E00087F2E0008852E0008A530000874
:10009000A9300008AD300008B1300008B5300008C4
:1000A000B9300008BD300008C1300008C530000874
:1000B000C9300008CD3000088B2E0008D130000870
:1000C000D5300008D9300008DD300008E1300008E4
:1000D000E5300008912E00089D2E0008E930000848
:1000E000ED300008F1300008F5300008F930000864
:1000F000FD30000801310008053100080931000811
:100100000D31000811310008B12E0008153100082A
:10011000193100081D31000821310008253100087F
:10012000293100082D31000831310008353100082F
:1001300038B5040001D1012032BD00F022F808B921
:1001400000F023F800F013F800F024F8FFE7416115
:1001500000F001F832BD2068C16841F40051C1606F
:100160000020686020206870A8700020704724205C
:1001700068702068C16821F40051C160204600F019
:10018000C4BA04F138056878704700212970204608
:1001900000F059BB2068016921F490410161206899
:1001A000416921F02A0170472DE9F843054605F120
:1001B00038070C4678782028164698463CD1002C03
:1001C00014BF002E012038D03878012834D0012106
:1001D0003970212000217960787000F007FCAE842E
:1001E0008146EE8403E0296814F8010B4860E88C2E
:1001F00028B3E98C481EE8844B46A868CDF80080F7
:10020000B0F5805F0DD100F024F870B9208829681E
:10021000C0F3080048602869002814BF641CA41CAF
:10022000E5E700F016F80028DDD0032005E02020E7
:1002300078700020387000E00220BDE8F283CDF82D
:1002400000804B460022402100F005F80028EED047
:10025000EBE7002280212846BDE170B5044604F199
:10026000380513466878202831D109B1180001D12A
:10027000012070BD2878012829D001222A7021622E
:10028000A384E3840020686021206870226B0FF251
:1002900089209062226B0FF2AD20D062226B0FF2A8
:1002A000ED2010630020266B70632068021D206B18
:1002B00000F0E5FB21686FF0400008600020287026
:1002C0002068416941F080014161002070BD022039
:1002D00070BD38B5044604F138051346A8782028C7
:1002E0003ED109B1180001D1012032BD2878012882
:1002F00036D001222A70A162A385002068602220E6
:10030000A870626B0FF245209062626B0FF275204D
:10031000D062626B0FF2752010630020626B506335
:100320000A462068011D606B00F0A9FB00200090C8
:1003300020680168009142680092002200992A70AA
:10034000C26842F48072C2602068416941F00101D4
:1003500041612068416941F040014161002032BDA6
:10036000022032BD38B5044604F1390520684169E0
:100370002A78212A09D1090607D500F017F808B113
:1003800000F0B7FB204600F058F9206841696A7810
:10039000222A09D1490607D500F00EF808B100F06D
:1003A000A8FB204600F052F9002032BD416921F03F
:1003B00080014161206B7047416921F0400141613A
:1003C000606B704738B5044625682968EA686B6930
:1003D00011F00F0007D188065DD590065BD5204649
:1003E000BDE8324046E1D80702D412F4907F52D0E3
:1003F000C80705D5D00503D5E06B40F00100E063E8
:10040000480705D5D80703D5E06B40F00200E0634C
:10041000880705D5D80703D5E06B40F00400E063FA
:10042000080705D5D80703D5E06B40F00800E06366
:10043000E06B00286ED0890604D5900644BF2046A4
:1004400000F018F920684069E16B0A0701D4400602
:100450001BD5204600F0FAF8206841694A060FD5FE
:10046000FFF7AAFF60B10FF201214163606B00F05A
:1004700059FB00284ED0606B416BBDE83440084703
:100480002046BDE8324000F0C8BC204600F0C5FC64
:100490000020E06331BD08062CD510062AD594F85B
:1004A0003900212836D1A168206AB1F5805F0DD1CD
:1004B0000188C1F308016960206918B9216A881CA4
:1004C000206207E0206A411C216203E0411C216296
:1004D00000786860E08C401EE08480B2D0B920686B
:1004E000C16821F08001C1602068C16841F040010D
:1004F000C16031BD48060DD550060BD5E86820F027
:100500004000E860202184F839102046BDE83240E0
:1005100000F084BC31BD0000416A006802689306A7
:1005200044BF084600F07ABC0020C88408684269CD
:1005300022F0800242610868C16841F04001C16058
:1005400070470000406A00F06ABC0000416A006821
:100550000268930613D40020C8850868C26822F494
:100560008072C2600868426952085200426108689D
:10057000426922F040024261202081F83A00084698
:1005800000F04EBC406A00F04CBC000038B5446A34
:100590002068406904F139052978212906D100062F
:1005A00004D50020E084204600F047F82068406928
:1005B0006978222906D1400604D50020E08520462E
:1005C00000F044F8E06B40F01000E0632046BDE826
:1005D000324000F022BC2DE9F041069C05460E4653
:1005E00090461F46286801683140B1420CBF012087
:1005F0000020404517D114F1010FF3D024B100F0D1
:10060000F5F9C01B8442EDD22868C16821F4D0718D
:1006100000F00CF805F138002021417081700021B4
:100620000170032000E00020BDE8F081C16028686F
:10063000416949084900416170470168CA6822F070
:10064000C002CA60202180F8391070470168CA686A
:1006500022F49072CA6001684A69520852004A61E5
:10066000202180F83A107047406A0021C185C1847A
:1006700000F0D3BB80B590F83A10222943D18268AC
:10068000B2F5805F14D1826A016941B90368596883
:10069000C1F308011180826A911C816218E001682F
:1006A0004B6803F0FF031380816A4A1C82620FE0EB
:1006B00001690029816A04D14A1C82620268536878
:1006C00005E04A1C82620268536803F07F030B70E6
:1006D000C18D491EC18589B299B90168CA6822F0E5
:1006E0002002CA600168CA6822F48072CA60016888
:1006F0004A69520852004A61202180F83A1000F0FD
:100700008FFB002002BD022002BD2DE9F047044608
:10071000642521680A69E06822F4405202430A61B4
:100720001926CA6831480240A06802432069024382
:1007300060690243CA604A69A06922F440720243B8
:100740002B484A6181420ED100F0B2FD074600F00D
:10075000AFFD804600F0ACFD814600F0A9FD824669
:1007600000F0A6FD0DE000F09BFD074600F098FDAF
:10077000804600F095FD814600F092FD824600F033
:100780008FFD06FB09F9616889007743B7FBF1F239
:1007900006FB08F7B7FBF1F3B9FBF1F7B7FBF5F789
:1007A00005FB17331B013233B3FBF5F3B2FBF5F254
:1007B00003F0F00303EB021306FB0AF74643B7FB13
:1007C000F1F2B6FBF1F06421B0FBF1F005FB10256E
:1007D0002D0132356420B5FBF0F0216800F00F00E8
:1007E000C3188B60BDE8F08700000000F3E9FFFF4D
:1007F0000038014080B56848684900F011F818B128
:10080000BDE8044048211AE001BD80B5644865494F
:1008100000F006F818B1BDE804405B210FE001BD0F
:1008200001604FF4E131416000218160C1600161EC
:100830000C21416100218161C161FFF779BC0FF298
:10084000781000F0A7BE2DE9F841044685B0206875
:10085000524A554D0FF26018544F554E554990422B
:100860003FD1086840F4804008600222096801F422
:10087000804104914FF4007100F085F84FF48060DE
:1008800000F078F805F11400386000207860B86056
:100890008020F860002038617861B861F8613846DE
:1008A00000F0AAF810B1862100F061F8102067630B
:1008B000B8647C620020F8647D6480203865002084
:1008C0007865B865F865386607F1440000F094F87B
:1008D00010B1962100F04BF807F144002063BC668C
:1008E00042E0304A90423FD1486840F400304860CE
:1008F0000222486800F400300490042100F043F81C
:10090000082000F037F807F1880605F1280030606C
:1009100000207060B0608020F06000203061706165
:10092000B061F061304600F067F810B1C12100F00D
:100930001EF86663746205F13C00706407F1CC0533
:100940001020B0640020F0648020306500207065C5
:10095000B065F0653066284600F04EF810B1D12140
:1009600000F005F82563B46606B0BDE8F0814046A6
:1009700000F010BE00900021012001910290694614
:10098000304600F009BE04980091032003900192C4
:100990006946304600F000BE902200200038014039
:1009A000D022002000440040440002401C200020CF
:1009B0000008014018100240453A5C557365727397
:1009C0005C626572747A5C446F63756D656E747396
:1009D0005C4769744875625C445376312E345C53CD
:1009E00072635C75736172742E6300000148006865
:1009F000704700BF5423002030B508B9012030BD36
:100A00000268DFF8B0138A4200F1280306D2DFF84B
:100A1000A81300F02DF8DFF8A41305E0DFF8A01309
:100A200000F026F8DFF89C135961022180F82110AC
:100A3000146841686FF30D140C4381680C43C1685E
:100A40000C4301690C4341690C4381690C43C16942
:100A50000C4314600021196059609960D9601961D4
:100A6000012180F82110002180F82010002030BDE5
:100A70008C181425B4FBF5F4A4009C617047F8B5FC
:100A80000446002594F82000012801D10220F2BD7F
:100A900094F821000126012884F8206024D1022640
:100AA00084F8216004F12C06F560206807687F084F
:100AB0007F000760204600F09FF92168306820B170
:100AC0000A6842F00E020A6008E0086820F004009C
:100AD00008602068016841F00A010160206802682E
:100AE00042F00102026002E084F82050022528460C
:100AF000F2BD10B501680A6822F00E020A6000F12A
:100B00003C020B685B085B000B60012451688C4061
:100B100011684C600122002180F8212080F820100B
:100B2000002010BDF8B590F821200024022A00F121
:100B3000340103D00420486001245FE00268DFF83C
:100B40008862136823F00E0313604FF48077026805
:100B500015686D086D0015604FF480320368B3426C
:100B60004FF4805519D9DFF84C62B34208BF012217
:100B700010D0DFF85862B34208BF10220AD0DFF865
:100B80005062B34208BF3A4604D0DFF84862B3422D
:100B900008BF2A46DFF8403227E0DFF840C263454D
:100BA0001CD0DFF83CC263451AD0DFF838C2634579
:100BB00018D0DFF83472BB420EBF2A46DFF82C5241
:100BC000AB4210D0DFF82852AB4208BF4FF480127E
:100BD00009D0B34207D14FF0807204E0012202E055
:100BE000102200E03A46DFF80C321A60012280F849
:100BF000212080F82040096801B188472046F2BDD5
:100C00002DE9F84F00F1280204275169734BD1F800
:100C100000E004686C4925689669DFF8BC81DFF85C
:100C2000B491DFF8ACA1DFF8A4B1DFF888C1B74018
:100C30001EEA070F4AD06F0748D52568AD0603D4D2
:100C4000256825F0040525604FF4802407688F424D
:100C50004FF480454FF4806611D9674508BF0424DE
:100C60000AD05F4508BF402406D0574508BF344628
:100C700002D04F4508BF2C46C8F8004020E09F42F4
:100C800017D0574B9F4216D0564B9F4215D0564B0C
:100C90009F420EBF2C46554B9F420FD0544B9F4254
:100CA00008BF4FF4800409D08F4207D14FF0806411
:100CB00004E0042402E0402400E034464D490C6086
:100CC0005168002974D0BDE8F44F08470227B740A7
:100CD0001EEA070F4FD0AF074DD52568AD0606D4E5
:100CE000256825F00A052560012480F821404FF48D
:100CF000003407688F424FF400554FF4007611D945
:100D0000674508BF02240AD05F4508BF202406D0EB
:100D1000574508BF344602D04F4508BF2C46C8F897
:100D2000004020E09F4217D02D4B9F4216D02D4B04
:100D30009F4215D02C4B9F420EBF2C462B4B9F42FF
:100D40000FD02B4B9F4208BF4FF4001409D08F42A5
:100D500007D14FF0007404E0022402E0202400E0F8
:100D6000344624490C60002180F820101168F9B144
:100D7000BDE8F44F0847082101FA06F61EEA060FFF
:100D800016D0290714D5216821F00E012160012316
:100D900091698B4051694B6001230021136180F8F8
:100DA000201080F82130916811B1BDE8F44F084758
:100DB000BDE8F18F08040240F8FFFDBF00000240CB
:100DC000F8FBFDBF00040240800002401C0402400A
:100DD000300402404404024004040240080002407F
:100DE0001C00024030000240440002405800024013
:100DF0006C0002400400024038B5046C0125A54097
:100E0000C46B6560046863604068102802D1A2600A
:100E1000E16031BDA160E26031BD7047704770474D
:100E2000704770472DE9F8430646DFF8985430784C
:100E3000C1074AD5686800F00C00042807D068682C
:100E400000F00C0008280BD16868C10308D5296898
:100E500088033AD57068002840F0C080012069E11D
:100E60007068B0F5803F0FD038B9296821F480311F
:100E70002960286820F4802009E0B0F5A02F2968B7
:100E800007D141F480212960286840F4803028602F
:100E900006E021F4803129602A6822F480222A6049
:100EA000706868B1FFF7A2FD04462968880300F165
:100EB0009580FFF79BFD001B6528F6D3032039E1E1
:100EC000FFF794FD04462868810340F18780FFF70F
:100ED0008DFD001B6528F6D3F0E7FFF787FD001BAB
:100EE000022840F2AA80E9E7306970B10121396037
:100EF000FFF77CFD04462868810700F1DC80FFF7DE
:100F000075FD001B0228F6D9D8E73860FFF76EFDA3
:100F100004462868810765D5FFF768FD001B022895
:100F2000F7D9CBE70860FFF761FD0446686A8107DF
:100F300077D5FFF75BFD001B0228F7D9BEE708B99C
:100F4000286A09E00528286A06D140F004002862D2
:100F5000286A40F0010005E0400840002862286A45
:100F600020F00400286241F28938F06868B1FFF788
:100F70003DFD8146286A810700F1AA80FFF736FD12
:100F8000A0EB09004045F5D398E7FFF72FFD814618
:100F9000286A810740F19C80FFF728FDA0EB09003B
:100FA0004045F5D38AE7FFF721FD001B022840F2F8
:100FB000A28083E7FFF71AFD001B022840F2B580EC
:100FC0007CE700F0B9F804462868810140F1B1805F
:100FD000FFF70CFD001B0228F6D96FE73078DFF829
:100FE000F07281071BD5686810F00C0F09D0686893
:100FF00000F00C0008287FF477AF6868C1033FF564
:1010000073AF2968880703D5306901287FF426AFBC
:101010002968706921F0F80141EAC001296031783E
:1010200008071DD5B069DFF8AC1200283FF47AAF8D
:1010300001220A60FFF7DAFC0446686A81077FF53F
:101040004CAFDFF884120868C0084FF47A72B0FB26
:10105000F2F2009200BF0098411E00280091F9D1E1
:101060003078410739D5E8690024C10009D4E8691E
:1010700040F08050E8610124E86900F08050009061
:101080000098DFF85482D8F80010C8051BD4D8F8AF
:10109000000040F48070C8F80000FFF7A7FC81460C
:1010A000D8F80010C8050ED4FFF7A0FCA0EB09008B
:1010B0006528F5D302E72868716920F0F80040EA56
:1010C000C1002860ABE7F06801287FF438AF3FE744
:1010D0001CB1E86920F08050E861F06948B36968A4
:1010E00001F00C0108293FF4B9AE02287FF469AF82
:1010F00000F022F80446286881013FF554AF306AB9
:10110000B0F5803F05D16968B06821F40031014332
:1011100069606968306A21F474110143706A01439F
:101120006960012000F009F80446286881017FF514
:1011300041AF0020BDE8F28300203866FFF756BCBF
:101140002DE9F843654F05463868894600F00700E9
:10115000484502D200F07AF86CD12978594C8807BA
:1011600005D56168A86821F0F00101436160287825
:10117000C10757D56868012802D121688A0303E0B6
:10118000022803D121688A0103D453E02268910721
:1011900050D56168890840EA8100606041F2893871
:1011A000FFF724FC0646686801280BD1606800F050
:1011B0000C00042836D0FFF719FC801B4045F5D3FE
:1011C00003202DE0022837D1606800F00C000828C9
:1011D00028D0FFF70BFC801B4045F5D3F0E72878BB
:1011E000410705D56168E86821F4E0610143616069
:1011F0002878010706D56068296920F4605040EA24
:10120000C100606000F02CF862683549C2F3031237
:10121000895C2D4AC8401060002000F0B7FA002019
:10122000BDE8F283386800F007008145D7D200F0AE
:101230000DF8D4D00120F3E7606810F00C0FF1D066
:10124000FFF7D4FB801B4045F6D3B9E73968C908DE
:1012500049EAC1013960386800F007004845704725
:1012600020490A6802F00C00082814D10FF280030C
:10127000C2F38340D203185C0AD509680FF28003D9
:10128000124AC1F34041595CB2FBF1F14843704747
:101290001549484370470D4870470B480068704730
:1012A0000948104A006813681049C3F3022206E097
:1012B00005480C4A006813680C49C3F3C222895CD4
:1012C000C8407047001002400000002000127A0061
:1012D0000000424280044242007000400020024070
:1012E0003C2F00080410024000093D00683000084F
:1012F00002030405060708090A0B0C0D0E0F101057
:101300000102000038B500F055FA00F0A8F800F02E
:1013100063FA00F0C7FAFFF76DFAFFF776FA00F00C
:10132000D1FA00F065FB00F0D3FB00F0F1FB0022E6
:1013300000211E2000F082FC1E2000F09CFC0022F8
:101340000021322000F07AFC322000F094FC0022D0
:101350000021252000F072FC252000F08CFC0022EA
:101360000021262000F06AFC262000F084FC0022E8
:1013700000210B2000F062FC0B2000F07CFC00221E
:1013800000210E2000F05AFC0E2000F074FC002218
:1013900000210F2000F052FC0F2000F06CFC002216
:1013A0000021102000F04AFC102000F064FC002214
:1013B0000021112000F042FC112000F05CFC002212
:1013C0000021122000F03AFC122000F054FC00F042
:1013D0008DFC6C4C6C4D204600F0DDFC284600F086
:1013E000DAFC00F081FE00F031FF00F03EFF204605
:1013F00000F0D1FC284600F0CEFC00F078FC634CF5
:10140000E07C18B100F080FC0021E174207C18B170
:1014100001F0A9F90021217400F06DFE00F073FFC6
:1014200004F1180001F0D0F800F0DCFF04F1300006
:1014300001F010F9A07C012809D104F1180001F095
:1014400039F904F1300001F04CF90020A074607CFF
:101450000028D5D000F08CFE00216174D0E700B5E3
:10146000002195B001200D910B90022112914FF4B3
:1014700080300C90012213904FF4E0110F921491E0
:101480000BA8FFF7CFFC00B1FEE70F21022000916F
:10149000019000214FF4806002910390049168460E
:1014A0000221FFF74DFE00B1FEE7022005904FF448
:1014B0000041079105A801F08DF900B1FEE7FFF7A3
:1014C000ECFE4FF47A71B0FBF1F000F0DEFB04208B
:1014D00000F0EFFB002200214FF0FF3000F0AEFBE8
:1014E00015B000BD38B5054626482A680168274C66
:1014F000914228D11021264800F019F920700028C7
:1015000004BF6178002914D1E079D0B9A078A1880E
:10151000401CA070C0B2814213D2A07988B90120CA
:1015200001F01EF90120A0710020A0700120E071DF
:1015300007E0002001F014F90020A070E0800120F5
:10154000207220786070104A2D681368E08AA18AA2
:10155000AB4214D1401C80B2332802DB0120E0747E
:101560000020491C89B240F22D12914202DB012178
:10157000A1740021E268512A24BF521EE260E08279
:10158000A18231BD102200205022002084210020A1
:1015900000100140FEE700002DE9F84F83460F469A
:1015A000002080466A496B4A6B4B4FF00F094FF0A1
:1015B000010A3C680AFA08F606EA040EB64540F04D
:1015C000AE807C683CB3012C1AD0022C1DD0032CB9
:1015D0002ED0112C16D0122C1AD0604DAC421CBF4C
:1015E0005F4DAC4217D05F4DAC421CBF5E4DAC426C
:1015F00011D05E4DAC421CBF5D4DAC420BD018E02B
:10160000F86816E0F868001D13E0F868083010E08C
:10161000F8680C300DE0B86808B9042009E001282A
:1016200019BF0820CBF814600820CBF8106000E048
:101630000020BEF5807F03D2DC464FEA880404E038
:10164000A8F108040BF1040CA400DCF8005009FA1E
:1016500004F6B54300FA04F42C43CCF800407C684F
:10166000E4005CD51C6844F001041C604FEA980C4F
:101670001D6805F001050095009C52F82C604FEAAA
:10168000880404F00C0409FA04F526EA0505394E2D
:10169000B34508BF002618D0374EB34508BF012612
:1016A00013D0364EB34508BF02260ED0344EB34594
:1016B00008BF032609D0334EB34508BF042604D023
:1016C000314EB3450CBF0526062606FA04F42C431A
:1016D00042F82C406FEA0E067C68E50304D50D68DD
:1016E0004EEA05050D6002E00C6834400C607C6831
:1016F000A5034C684CBF4EEA040434404C607C683F
:10170000E5028C684CBF4EEA040434408C607C686F
:10171000A502CC684CBF4EEA04043440CC6008F10A
:101720000108B8F10F0F7FF644AFBDE8F18F806874
:10173000084018BF0120C0B2704781B002B9090447
:10174000016101B07047C2685140C160704700003C
:101750000004014008000140181002400000111070
:1017600000001210000021100000221000003110B3
:101770000000321000080140000C01400010014040
:101780000014014000180140001C014010B5084938
:101790000A6804464FF47A70B2FBF0F000F075FA74
:1017A000002221464FF0FF3000F048FA002010BD23
:1017B0000000002080B50748016841F01001016079
:1017C000032000F02EFA0020FFF7E0FF01F076F88A
:1017D000002002BD00200240F0B52E482E4C2F4EB6
:1017E00085B0016841F01001016042F242070268D1
:1017F00002F01002049243F260250499016841F05E
:1018000020010160026802F020020492049901683C
:1018100041F004010160026802F004020492002217
:101820000499016841F0080101603946006800F040
:101830000800049004982046FFF77FFF0022294605
:101840003046FFF77AFF01200221019003910097B3
:1018500069462046FFF7A0FE02200021009001917A
:10186000029169460E48FFF797FE10200090002174
:1018700001200191029069462046FFF78DFE01206C
:10188000022101900391009569463046FFF784FEDE
:1018900005B0F0BD1810024000100140000C0140DE
:1018A00000080140064881B0016841F00101016073
:1018B000006800F001000090009801B0704700BF80
:1018C000141002403EB5374C37480FF2F005206047
:1018D0004FF48070A0600020E06060614FF46020F1
:1018E000E0610020606002202061204601F02CF8B9
:1018F00018B145212846FFF74DFE0C20009001212C
:101900000720019102906946204601F01DF918B1A7
:101910004F212846FFF73EFE102002210090019142
:101920002046694601F010F918B158212846FFF702
:1019300031FE37BD30B5044685B020681A4988426B
:101940002ED11A481A4D016841F40071016004213A
:10195000006800F40070009003220098154801917F
:10196000029201A9FFF718FE00206860A86080209D
:10197000E8604FF4007028614FF400606861202037
:10198000A86100200C49E86129602846FFF734F877
:1019900020B17C210FF22400FFF7FCFD25626C6270
:1019A00005B030BD10230020002401401810024073
:1019B000CC2100200010014008000240453A5C554F
:1019C000736572735C626572747A5C446F63756D83
:1019D000656E74735C4769744875625C4453763114
:1019E0002E345C5372635C6164632E6300000000FC
:1019F00080B52648264901604FF48271416000217C
:101A000081604FF40061C1600221016101214161E7
:101A10004FF4007181611021C161002101624162B6
:101A200081620A21C16201F03DF930B1BDE8044094
:101A300045210FF26800FFF7ADBD01BD00681449F4
:101A4000884200D0704718B51248134C85B0016821
:101A500041F480510160A021006800F480500090A2
:101A600002220098019103200490029201A92046CD
:101A7000FFF792FD40200021019002910391204642
:101A800001A9FFF789FD06B010BD00002C21002040
:101A9000003001401810024000080140453A5C55F2
:101AA000736572735C626572747A5C446F63756DA2
:101AB000656E74735C4769744875625C4453763133
:101AC0002E345C5372635C7370692E6300000000F7
:101AD0003A4838B53A4C0FF2F805206086B04720F6
:101AE00060600020A060632000F03DF810B140214C
:101AF00000F036F800F02DF810B1462100F030F873
:101B000000F038F810B14D2100F02AF807B030BDD0
:101B10002C4838B52C4C0FF2B805206086B0472011
:101B200060600020A06040F2E73000F01CF810B1C7
:101B30005F2100F015F800F00CF810B1652100F0FD
:101B40000FF800F017F810B16C2100F009F807B099
:101B500030BD4FF48050029002A9204600F0DCB95D
:101B60002846FFF717BDE06000202061A0612046F5
:101B700000F004B90020009001906946204601F071
:101B8000D3B881B000680D4A1049904207D1086867
:101B900040F004000860096801F0040109E0094A06
:101BA000904208D1086840F008000860096801F018
:101BB00008010091009801B0704700000008004043
:101BC00010220020000C0040502200201C10024077
:101BD000453A5C55736572735C626572747A5C44F5
:101BE0006F63756D656E74735C4769744875625C8C
:101BF000445376312E345C5372635C74696D2E638A
:101C0000000000000901002881B006D52F4A00F02D
:101C10000F00104400F8041C01E02D4A115401B0DB
:101C200070472C4A13684FF6FF0100020B4000F486
:101C3000E0601843284908431060704738B5254BC9
:101C40001C68C4F30223C3F10704052C28BF042435
:101C50001D1D072D34BF0023DB1E012505FA04F4EA
:101C6000641E2140994005FA03F35B1E1A4011439C
:101C7000BDE83440C6E7012200F01F01174BFFE723
:101C80008A40400943F82020704710B5401EB0F14B
:101C9000807F01D3012010BD114C60600F214FF0F7
:101CA000FF30FFF7AFFF0022A26007202060002076
:101CB00010BD04280A4904D1086840F004000860F7
:101CC00070470A6822F004020A60704718ED00E0CD
:101CD00000E400E00CED00E00000FA0500E100E0A7
:101CE00010E000E000F000B87047000070470022EC
:101CF000FFE74FF400711B48FFF71FBD0122402191
:101D0000F9E700224021F6E738B51849164C087863
:101D1000144DA0B10022402100F02CF84FF40051E6
:101D20002846FFF710FD4FF480512846FFF70BFDC2
:101D30002046BDE834404FF40051FFF704BD0122B6
:101D4000402100F017F8012200F012F8002200F004
:101D50000FF82046BDE8384001224FF40051FFF74C
:101D6000ECBC0000000C0140001001405823002092
:101D70004FF400512846FFF7E0BC000038B50400DE
:101D800001D1012032BD00F01FF818B900F018F899
:101D9000FFF7F7FE0AE00068C16841F00101C16089
:101DA000026842F001020260002070470220687061
:101DB000211D206800F01BF901206870002032BD51
:101DC000002129702046704704F13C05687870476F
:101DD00010B50446206801698A0715D5C1688A07CD
:101DE00012D56FF00202026101212177806910F0A3
:101DF000030F204602D000F0BCFF03E000F0BAFF62
:101E000000F087F800202077206801694A0715D57F
:101E1000C1684A0712D56FF00402026102212177DE
:101E2000806910F4407F204602D000F0A2FF03E05A
:101E300000F0A0FF00F06DF8002020772068016915
:101E40000A0715D5C1680A0712D56FF008020261AA
:101E500004212177C06910F0030F204602D000F062
:101E600088FF03E000F086FF00F053F800202077A1
:101E700020680169CA0615D5C168CA0612D56FF077
:101E80001002026108212177C06910F4407F2046CA
:101E900002D000F06EFF03E000F06CFF00F039F8B4
:101EA0000020207720680169CA0708D5C168CA07E1
:101EB00005D56FF0010202612046FFF713FB206891
:101EC00001690A0608D5C1680A0605D56FF08002C7
:101ED0000261204600F04FFF206801694A0608D5DC
:101EE000C1684A0605D56FF040020261204600F045
:101EF00043FF206801698A060AD5C1688A0607D5AA
:101F00006FF0200202612046BDE8104000F035BFAE
:101F100010BD204600F032BF38B500F05DF801D1A9
:101F2000022032BD01222270022060702A68DFF890
:101F300034019368034093600868002837D0102864
:101F400037D0202837D0302837D040282BD0502801
:101F50001ED0602820D070280BD0B0F5805F03D051
:101F6000B0F5005F0CD02CE028688168C908C90072
:101F70000CE000F028F82868816841F0770105E05E
:101F800000F021F82868816841F48041816018E000
:101F900000F01EF8502111E0CA684968286800F076
:101FA0007CF860210AE000F013F8402106E00021EF
:101FB00004E0102102E0202100E03021286800F038
:101FC0007EF80FE00000CB684A68896828687EE0E8
:101FD000CA684968286851E0054605F13C04207844
:101FE00001287047012060700020207032BDF0B5DC
:101FF000DFF874C01D4F03681D4C1E4D1E4E60451A
:1020000018BFB84208D0B0F1804F18BFB04203D01B
:10201000A84218BFA0420DD14A6823F070031343B1
:10202000604518BFB84207D0B0F1804F1CBFB04226
:10203000A84201D0A04203D1CA6823F440731343DD
:102040004A6923F080031343036060458A68C262D3
:102050000A68826212BFB8420969016301214161C5
:10206000F0BD00008800FFFF002C0140003401405B
:10207000000C0040000800400004004010B5036A56
:10208000046A64086400046223F00A03846924F08B
:10209000F00444EA0214846123E010B5036A23F0DB
:1020A000100303628369046A23F4704343EA023332
:1020B00024F0A004836144EA0114046210BD826824
:1020C00022F07002114341F007018160704710B5A2
:1020D000846824F47F442143114341EA0321816051
:1020E00010BD1943016210BD1648142181800021E2
:1020F000C1600020704770B5124D134CE87900267E
:1021000010B1E968642902D22670FFF7F7FDA979BA
:1021100000291CBF287A002811D00C49E960012051
:102120002070FFF7EEFD0A48B1210170C680012141
:102130004170468000F00EFA0646002028723046B4
:1021400070BD00008421002058230020F45F0100AE
:102150009C21002010B502460123107803E09BB2B9
:10216000D45C60405B1C9CB28C42F8D3C0B210BD02
:1021700080B5DFF89C0501214170B221017000217A
:102180004180C18000F0EEF9DFF88815487302BD88
:1021900038B504460A46A07AC8B90121A1725D216A
:1021A0002078507060789070E078D070A0781071CE
:1021B000E0881518C01DA9712081C11E89B2501C6C
:1021C000FFF7C8FF687101210020A174207500206D
:1021D00032BD1CB500680168CA060BD5002000900E
:1021E000DFF8344500F019F8606B01684868DFF8E3
:1021F0002C151BE013BD1CB500680168CA060BD581
:1022000000200090DFF8184500F007F8606B0168C7
:102210004868DFF8101509E013BD206801680091D7
:102220004068009020460099FEF79CB8C0F5006019
:10223000488002B0087840F0010001F8040B4FF428
:1022400000622046BDE81040FEF743B880B5DFF8D5
:10225000C80400F01FF8DFF8D014FEF73AF8DFF8F2
:10226000CC1400F01FF8002002BD80B5DFF8B004E8
:1022700000F010F8DFF8B814FEF72BF8DFF8B4140C
:1022800000F010F800220221DFF8AC04FFF755FA45
:10229000002002BD0168CA6842F01002CA604FF413
:1022A000006270475B2008705B21DFF890040170CA
:1022B0005D214171704780B50A4601464FF6FF73B4
:1022C000DFF85404FDF770FF010018BF012002BDC4
:1022D00070B504460D46DFF86064012202213046E5
:1022E000FFF72BFA2A462146DFF83404FDF7B5FF45
:1022F0000446012000F043FD002202213046FFF792
:102300001CFA204670BDF8B5DFF810241078C1071C
:1023100066D500F0FE001070DFF8F843A07C0028BE
:1023200004BFE07C00285BD1E588208A5188DFF873
:10233000FC33A8421FD2F0B1002001E0401C80B263
:1023400088424DDA268A02F1040E5F1D00EB060C6E
:102350001EF800E007F80CE0761C2682B6B2B54203
:10236000ECD100F0CDF832D100F0D1F8864236D170
:102370000120E07434E02089002831D115795B2DEB
:102380002FD1507900F0F005A02D04BF567A5D2EB4
:1023900006D100F0C2F8854222D1012020751FE04D
:1023A00000F095F838B9907A5D2819D100F0BFF89F
:1023B0008542DDD013E0052501E06D1CADB28D42F4
:1023C0000EDA00F094F8F8D100F07BF803D000208A
:1023D0002082E08003E000F0B1F88542C8D0B6E08A
:1023E0000020F2BDF8B5DFF83C231078C10766D5B0
:1023F00000F0FE001070DFF81843A07C002804BF36
:10240000E07C00285BD1E588208A5188DFF82433FE
:10241000A8421FD2F0B1002001E0401C80B28842E7
:102420004DDA268A02F1040E5F1D00EB060C1EF841
:1024300000E007F80CE0761C2682B6B2B542ECD17B
:1024400000F05EF832D100F062F8864236D1012009
:10245000E07434E02089002831D115795B2D2FD12B
:10246000507900F0F005A02D04BF567A5D2E06D1FC
:1024700000F053F8854222D1012020751FE000F0C2
:1024800026F838B9907A5D2819D100F050F88542C5
:10249000DDD013E0052501E06D1CADB28D420EDAF2
:1024A00000F025F8F8D100F00CF803D000202082CD
:1024B000E08003E000F042F88542C8D047E0002009
:1024C000F2BD02F10A01B6B2895D5D297047207044
:1024D00096796670157AA570D779E7701D71587076
:1024E0009E70DF7005EB0725E580E0887047161DBC
:1024F000765D5E55268A761CB7B2B8422682704752
:10250000511D0E5C2671104480795D287047ED1DC9
:10251000E91E258189B2581C1CE6E07203219079DE
:102520002073D0796073501D157AA57312E60720C9
:10253000557A208125710421581C0BE6511DC01DC0
:102540004D5D2081C11E257189B2581C02E6002014
:102550002081F2BD38B50446E07C08B1002032BDD0
:10256000724D06E038B50446E07C08B1002032BD6B
:10257000704D29462046FFF70BFE21892846BDE80D
:1025800038404FF6FF7296E610B500F013F8207150
:102590004FF6FF722046BDE8104006218BE610B5CD
:1025A00000F008F820714FF6FF722046BDE8104099
:1025B00006218DE6614CC17A6170017BA170032117
:1025C000407BE070601CC5E538B504460025E07C22
:1025D00001283DD1207800F0F001B02908D0C029B1
:1025E00010D0D0291FD0E02926D0F02927D029E00B
:1025F000AB21B228E17226D102202073657301203D
:102600004F4917E0AC21C128E17208BF012006D074
:10261000C22808BF022002D0C32814D1032020738F
:10262000607860730FE0AD21D128E1720BD10120F9
:1026300020734449087006E0AE21E17203E0AF2048
:10264000E07200E004252046FFF79EFF00F029F825
:10265000284632BD38B504460025E07C01281ED14D
:10266000217801F0F001B02908D0C02908D0D02984
:1026700008D0E02908D0F02908D00AE0AB2006E015
:10268000AC2004E0AD2002E0AE2000E0AF20E0721C
:1026900000E004252046FFF782FF00F002F82846FC
:1026A00032BD0020A072E074E080E070A070208253
:1026B0002081704710B504460020A17C01290FD16C
:1026C000227D012A02D0617D052900DB3CE02189C1
:1026D00016484FF6FF72FFF7EEFD617D491C6175EC
:1026E00010BD10B504460020A17C01290FD1227D28
:1026F000012A02D0617D052900DB25E021890D48F2
:102700004FF6FF72FFF7E4FD617D491C617510BD56
:10271000B42100209C2100209022002014100020D1
:10272000D0220020181800201810002004000020DB
:102730001C1800200C080020001001404C23002031
:102740009521002094210020A072A074607520754E
:10275000E074E080E070A0702082208110BD000055
:102760001A498871704700B585B05B208DF800006C
:10277000D12101208DF802008DF8011000208DF884
:1027800003000A215D208DF804108DF810000A2244
:102790000E490DF1050000F001FB9DF801008DF8D8
:1027A0000F0000200DF102029DF80F10125C401C7A
:1027B00051400D288DF80F10F4DB4FF6FF731122F6
:1027C00069460348FDF7F0FC05B000BD402300203A
:1027D000902200202DE9FC410646354D3078C10796
:1027E00050D5A8690024C10009D4A86940F08050E0
:1027F000A8610124A86900F08050009000982D4F36
:102800003968C80517D4386840F480703860FEF71E
:10281000EDF880463968C8050DD4FEF7E7F8A0EB5F
:1028200008006528F6D303203FE0FEF7DFF8C01B61
:10283000404519D3F7E7E86910F440701EBF71688E
:1028400001F44071884212D01B49E86901220A60F4
:1028500020F4407000220A60E861C00707D5FEF747
:10286000C5F8074641F28938E8698107DDD5E9698D
:10287000706821F440710143E9611CB1A86920F03E
:102880008050A8613178880705D52A68B06822F49D
:10289000404202432A603078C10605D52968706934
:1028A00021F48001014329600020BDE8F681000089
:1028B00004100240007000404004424280B52048AD
:1028C000016841F001010160006800F00100009022
:1028D00000980320FFF7A5F9002200216FF00B00FC
:1028E000FFF7ACF9002200216FF00A00FFF7A6F90C
:1028F000002200216FF00900FFF7A0F9002200215B
:102900006FF00400FFF79AF9002200216FF0030036
:10291000FFF794F9002200216FF00100FFF78EF914
:10292000002200214FF0FF30FFF788F905480168C9
:1029300021F0E0610160026842F00072026001BDB6
:102940001810024004000140F8B504460027002694
:10295000002C7AD004F12405686820B9AE60287094
:102960002046FEF7E7FF204600F07AF96968CA06BC
:102970006CD401006AD1696821F4885141F00201E8
:1029800069602368DFF8BC12E269D4F804C08B42A6
:1029900004BFB2F5402F4FF40022E16842EA0C0276
:1029A000D4F808C0BCF5807F14BFBCF1010F4FF410
:1029B0008077D4F814C0BCF1010F42EA41020FD174
:1029C00031B9A169491E490341F400610F4307E091
:1029D000696841F020016960A96841F00101A960BE
:1029E000596821F469410F435F602368DFF858128A
:1029F0009F680F4017439F60A168B1F5807F18BFA3
:102A0000012902D12669761E36052168CB6A23F496
:102A100070031E43CE622468DFF83012A3680B40B7
:102A2000934208D10021A960696821F0020141F0B8
:102A300001016960F2BD686820F0020040F01000FA
:102A40006860A86840F00100A86003E0686840F092
:102A5000100068600120F2BD10B504462168486886
:102A6000820622D50A6890071FD5A06AC20603D441
:102A7000A06A40F40070A06200F05AF804BFE06859
:102A800000280BD14A6822F020024A60A06A20F494
:102A90008070A062A06AC10400F050F8204600F0E7
:102AA000D0F921686FF012000860216848680206BA
:102AB0002BD50A68500728D5A06AC20603D4A06A9D
:102AC00040F40050A062886800F4E040B0F5E04FA8
:102AD00008D04868420511D400F02AF804BFE06825
:102AE00000280BD14A6822F080024A60A06A20F4D4
:102AF0008050A062A06AC10500F020F8204600F0D6
:102B0000A1F921686FF00C000860206841684A064E
:102B10000DD50068C1070AD5A06A40F48030A062D4
:102B2000204600F090F921686FF00100086010BDA8
:102B3000886800F46020B0F5602F704703D4A06A65
:102B400040F00100A0627047F8B50A46002100F18C
:102B5000240300911C78012C01D10220F2BD012533
:102B60001D701F27546815680668072C08D2641E5C
:102B700004EB8404D6F834C000F05EF8756312E00C
:102B80000D2C08D2E41F04EB8404D6F830C000F00A
:102B900053F8356307E00D3C04EB8404D6F82CC0F1
:102BA00000F04AF8F56207271668946805680A2E4F
:102BB00008D30A3E06EB4606D5F80CC000F036F8FE
:102BC000EC6006E006EB4606D5F810C000F02EF8E3
:102BD0002C611468102C18BF112C23D100681D4CD7
:102BE000A0421AD11C48046825021BD4056845F48C
:102BF000000505601068102814D1154C1748256889
:102C0000B5FBF0F00A2250430090009800281EBF48
:102C1000009A521E0092F8D104E00121586840F059
:102C200020005860002018700846F2BDB7402CEA1A
:102C30000707B4403C437047A7402CEA0707A5406C
:102C40003D437047003C0140FDF7E1FFFE0E1FFFD2
:102C500000000020002401400824014040420F00F1
:102C600038B5044620688168CA0719D581684908C3
:102C700049008160FDF7BAFE054620688168C807F3
:102C80000ED5FDF7B3FE401B0328F6D3A06A40F033
:102C90001000A062E06A40F00100E062012032BD55
:102CA000002032BD10B5040001D1012010BD00206C
:102CB000A06294F8510010B92046FEF7BFFE022131
:102CC00084F851102068016821F0400101606268B9
:102CD000A068A1690243E068024320690243606979
:102CE000024301F40071E0690A430243206A02438F
:102CF000A06A024320680260A169606A090C01F0C1
:102D000004010143206841602068E16A0161206894
:102D1000C16921F40061C16100206065012084F86F
:102D20005100002010BD000030B500F13C031A78BE
:102D3000012A01D1022030BD01241C7002225A70E8
:102D40000268546824F070045460046865680A6876
:102D5000154365600268946824F0800494600268FA
:102D600094684868044394600120587000201870EB
:102D700030BD70477047704770477047704731B536
:102D8000FDF734FE009D15F1010F044618BF6D1CC0
:102D9000FDF72CFE001BA842FAD331BD62B38B07AE
:102DA00008D0521E11F8013B00F8013B00F02480CE
:102DB0008B07F6D1830740F0208000BF103A07D37D
:102DC00030B4B1E83810103AA0E83810F9D230BC6D
:102DD000530724BFB1E80810A0E8081044BF51F819
:102DE000043B40F8043BD20724BF31F8022B20F803
:102DF000022B44BF0B7803707047121F17D35B0080
:102E000009D151F8043B20F8023B1B0C121F20F89B
:102E1000023BF6D20BE051F8043B00F8013B1B0AE1
:102E200020F8023B1B0C121F00F8013BF3D238BF05
:102E3000121D521E24BF11F8013B00F8013BF8D8C7
:102E400070477047704770477047FEE7FEE7FEE740
:102E5000FEE770477047704780B500F041F8BDE865
:102E60000140FEF73FBF1448FDF7CABE1348FDF707
:102E7000C7BE1348FDF7C4BE1248FDF7C1BE1248D5
:102E8000FDF7BEBE1148FFF7E7BD1148FEF7A0BF32
:102E900010B5104C2046FFF79CF904E010B50E4C1D
:102EA0002046FFF7A8F92046BDE81040FDF78ABA92
:102EB0000A48FEF78DBF0000CC21002060200020D2
:102EC0001C200020A4200020E82000201023002047
:102ED0001022002090220020D0220020502200202A
:102EE00002480168491C0160704700BF542300205C
:102EF0000E49086840F0010008604A680C4802402A
:102F00004A600B680B4803400B60086820F480207F
:102F100008604FF41F004A6822F4FE024A6088608D
:102F20004FF0006004490860704700000010024044
:102F30000000FFF8FFFFF6FE08ED00E000000000D3
:102F400000000000010203040607080919E050F818
:102F5000042BD30744BFA9F101039A18091F0023CA
:102F6000042942F8043BF9D25FEA817C134604D578
:102F70004FF0000CA2F800C09B1CC90744BF002101
:102F8000197050F8041B0029E1D1704710B450F8B3
:102F9000041B79B10268436802440830DC0744BF6F
:102FA000A9F10104E31852F8044B43F8044B091F3C
:102FB000F9D1ECE710BC704710B5074979441831D6
:102FC000064C7C44163404E00A68081D1144884706
:102FD0000146A142F8D110BD080000002800000001
:102FE0006DFFFFFF582300000400002000000000D8
:102FF0009DFFFFFF040000004001000000000020D2
:103000000000000000F00DF8002801D0FFF7D4FF09
:10301000AFF300800020AFF30080FEF773F900F0FB
:1030200002F80120704700F001B80000074638465A
:1030300000F002F8FBE7000080B5AFF30080024A21
:1030400011001820ABBEFBE72600020001488047B4
:1030500001480047F12E00085D300008AFF3008002
:10306000AFF30080FFF7CEFF000000000102030471
:10307000FFF7FEBFFFF7FEBFFFF7FEBFFFF7FEBF84
:10308000FFF7FEBFFFF7FEBFFFF7FEBFFFF7FEBF74
:10309000FFF7FEBFFFF7FEBFFFF7FEBFFFF7FEBF64
:1030A000FFF7FEBFFFF7FEBFFFF7FEBFFFF7FEBF54
:1030B000FFF7FEBFFFF7FEBFFFF7FEBFFFF7FEBF44
:1030C000FFF7FEBFFFF7FEBFFFF7FEBFFFF7FEBF34
:1030D000FFF7FEBFFFF7FEBFFFF7FEBFFFF7FEBF24
:1030E000FFF7FEBFFFF7FEBFFFF7FEBFFFF7FEBF14
:1030F000FFF7FEBFFFF7FEBFFFF7FEBFFFF7FEBF04
:10310000FFF7FEBFFFF7FEBFFFF7FEBFFFF7FEBFF3
:10311000FFF7FEBFFFF7FEBFFFF7FEBFFFF7FEBFE3
:10312000FFF7FEBFFFF7FEBFFFF7FEBFFFF7FEBFD3
:0C313000FFF7FEBFFFF7FEBF00A24A043D
:040000050800305D62
:00000001FF
