:020000040800F2
:10000000E806002061230008712100087321000820
:100010007521000877210008792100080000000000
:100020000000000000000000000000007B2100082C
:100030007D210008000000007F21000881210008C8
:1000400085230008892300088D23000891230008D8
:1000500095230008992300089D230008A123000888
:10006000A5230008A9230008AD2300088F2100085C
:10007000B1230008B5230008952100089B21000842
:10008000A1210008A7210008AD210008B92300081C
:10009000BD230008C1230008C5230008C9230008A8
:1000A000CD230008D1230008D5230008D923000858
:1000B000DD230008E1230008B3210008E523000840
:1000C000E9230008ED230008F1230008F5230008C8
:1000D000F9230008B9210008BF210008FD2300080A
:1000E0000124000805240008092400080D24000844
:1000F0001124000815240008192400081D240008F4
:100100002124000825240008C5210008292400080E
:100110002D24000831240008352400083924000863
:100120003D24000841240008452400084924000813
:100130002DE9F8430646DFF898543078C1074AD5D0
:10014000686800F00C00042807D0686800F00C0014
:1001500008280BD16868C10308D5296888033AD5F7
:100160007068002840F0C080012069E17068B0F537
:10017000803F0FD038B9296821F480312960286880
:1001800020F4802009E0B0F5A02F296807D141F4C0
:1001900080212960286840F48030286006E021F43E
:1001A000803129602A6822F480222A60706868B150
:1001B00000F02EFA04462968880300F1958000F0CB
:1001C00027FA001B6528F6D3032039E100F020FA56
:1001D00004462868810340F1878000F019FA001B6B
:1001E0006528F6D3F0E700F013FA001B022840F26E
:1001F000AA80E9E7306970B10121396000F008FA9E
:1002000004462868810700F1DC8000F001FA001B39
:100210000228F6D9D8E7386000F0FAF904462868D1
:10022000810765D500F0F4F9001B0228F7D9CBE768
:10023000086000F0EDF90446686A810777D500F0A0
:10024000E7F9001B0228F7D9BEE708B9286A09E0D8
:100250000528286A06D140F004002862286A40F088
:10026000010005E0400840002862286A20F00400F0
:10027000286241F28938F06868B100F0C9F9814616
:10028000286A810700F1AA8000F0C2F9A0EB0900FA
:100290004045F5D398E700F0BBF98146286A81070D
:1002A00040F19C8000F0B4F9A0EB09004045F5D383
:1002B0008AE700F0ADF9001B022840F2A28083E734
:1002C00000F0A6F9001B022840F2B5807CE700F0A0
:1002D000B9F804462868810140F1B18000F098F92E
:1002E000001B0228F6D96FE73078DFF8F07281073B
:1002F0001BD5686810F00C0F09D0686800F00C007E
:1003000008287FF477AF6868C1033FF573AF2968A9
:10031000880703D5306901287FF426AF2968706902
:1003200021F0F80141EAC0012960317808071DD5A4
:10033000B069DFF8AC1200283FF47AAF01220A60FE
:1003400000F066F90446686A81077FF54CAFDFF874
:1003500084120868C0084FF47A72B0FBF2F200927F
:1003600000BF0098411E00280091F9D13078410764
:1003700039D5E8690024C10009D4E86940F080500B
:10038000E8610124E86900F0805000900098DFF8EF
:100390005482D8F80010C8051BD4D8F8000040F4E7
:1003A0008070C8F8000000F033F98146D8F80010DA
:1003B000C8050ED400F02CF9A0EB09006528F5D390
:1003C00002E72868716920F0F80040EAC10028605F
:1003D000ABE7F06801287FF438AF3FE71CB1E8696C
:1003E00020F08050E861F06948B3696801F00C01C1
:1003F00008293FF4B9AE02287FF469AF00F022F873
:100400000446286881013FF554AF306AB0F5803F5B
:1004100005D16968B06821F40031014369606968F9
:10042000306A21F474110143706A0143696001204C
:1004300000F009F80446286881017FF541AF0020EB
:10044000BDE8F2830020386600F0E2B82DE9F843F9
:10045000654F05463868894600F00700484502D2D6
:1004600000F07AF86CD12978594C880705D5616875
:10047000A86821F0F001014361602878C10757D5D1
:100480006868012802D121688A0303E0022803D1A9
:1004900021688A0103D453E02268910750D561682E
:1004A000890840EA8100606041F2893800F0B0F8C4
:1004B0000646686801280BD1606800F00C0004282B
:1004C00036D000F0A5F8801B4045F5D303202DE081
:1004D000022837D1606800F00C00082828D000F00E
:1004E00097F8801B4045F5D3F0E72878410705D5FC
:1004F0006168E86821F4E0610143616028780107E0
:1005000006D56068296920F4605040EAC100606047
:1005100000F02CF862683549C2F30312895C2D4A59
:10052000C8401060002000F079F80020BDE8F28398
:10053000386800F007008145D7D200F00DF8D4D01C
:100540000120F3E7606810F00C0FF1D000F060F8C4
:10055000801B4045F6D3B9E73968C90849EAC101AB
:100560003960386800F007004845704720490A683C
:1005700002F00C00082814D10FF28003C2F383406C
:10058000D203185C0AD509680FF28003124AC1F33E
:100590004041595CB2FBF1F148437047154948436B
:1005A00070470D4870470B48006870470948104A6B
:1005B000006813681049C3F3022206E005480C4A9C
:1005C000006813680C49C3F3C222895CC8407047B5
:1005D000001002400000002000127A000000424299
:1005E0008004424200700040002002405022000877
:1005F0000410024000093D007C23000802030405AA
:10060000060708090A0B0C0D0E0F1010010200005E
:1006100001480068704700BFE002002010B508499B
:100620000A6804464FF47A70B2FBF0F000F04DF81F
:10063000002221464FF0FF3000F020F8002010BDCE
:10064000000000200901002881B006D52F4A00F0E3
:100650000F00104400F8041C01E02D4A115401B0B1
:1006600070472C4A13684FF6FF0100020B4000F45C
:10067000E0601843284908431060704738B5254B9F
:100680001C68C4F30223C3F10704052C28BF04240B
:100690001D1D072D34BF0023DB1E012505FA04F4C0
:1006A000641E2140994005FA03F35B1E1A40114372
:1006B000BDE83440C6E7012200F01F01174BFFE7F9
:1006C0008A40400943F82020704710B5401EB0F121
:1006D000807F01D3012010BD114C60600F214FF0CD
:1006E000FF30FFF7AFFF0022A2600720206000204C
:1006F00010BD04280A4904D1086840F004000860CD
:1007000070470A6822F004020A60704718ED00E0A2
:1007100000E400E00CED00E00000FA0500E100E07C
:1007200010E000E000F000B87047000038B50400A9
:1007300001D1012032BD00F022F808B900F023F801
:1007400000F013F800F024F8FFE7416100F001F831
:1007500032BD2068C16841F40051C160002068606A
:1007600020206870A87000207047242068702068DE
:10077000C16821F40051C160204600F022B904F1A3
:1007800038056878704700212970204600F0B7B915
:100790002068016921F4904101612068416921F0DC
:1007A0002A017047416921F040014161606B704747
:1007B00038B5044625682968EA686B6911F00F00AE
:1007C00007D188065DD590065BD52046BDE832404E
:1007D000ACE0D80702D412F4907F52D0C80705D5F8
:1007E000D00503D5E06B40F00100E063480705D574
:1007F000D80703D5E06B40F00200E063880705D519
:10080000D80703D5E06B40F00400E063080705D586
:10081000D80703D5E06B40F00800E063E06B0028E8
:100820006ED0890604D5900644BF204600F07EF8BD
:1008300020684069E16B0A0701D440061BD52046B9
:1008400000F05FF8206841694A060FD5FFF7AAFF5C
:1008500060B10FF2CD014163606B00F066FA0028D1
:100860004ED0606B416BBDE8344008472046BDE880
:10087000324000F0C5BB204600F0C2FB0020E06320
:1008800031BD08062CD510062AD594F83900212848
:1008900036D1A168206AB1F5805F0DD10188C1F31E
:1008A00008016960206918B9216A881C206207E084
:1008B000206A411C216203E0411C216200786860CB
:1008C000E08C401EE08480B2D0B92068C16821F07D
:1008D0008001C1602068C16841F04001C16031BD44
:1008E00048060DD550060BD5E86820F04000E860BA
:1008F000202184F839102046BDE8324000F081BB49
:1009000031BD0168CA6822F49072CA6001684A6900
:10091000520852004A61202180F83A1070470000C6
:10092000406A0021C185C18400F06ABB80B590F89F
:100930003A10222943D18268B2F5805F14D1826ACD
:10094000016941B903685968C1F308011180826ADD
:10095000911C816218E001684B6803F0FF0313806B
:10096000816A4A1C82620FE001690029816A04D110
:100970004A1C82620268536805E04A1C826202686F
:10098000536803F07F030B70C18D491EC18589B286
:1009900099B90168CA6822F02002CA600168CA6871
:1009A00022F48072CA6001684A69520852004A61A2
:1009B000202180F83A1000F025FB002002BD022023
:1009C00002BD2DE9F0470446642521680A69E06804
:1009D00022F4405202430A611926CA683148024093
:1009E000A06802432069024360690243CA604A6901
:1009F000A06922F4407202432B484A6181420ED121
:100A0000FFF7DCFD0746FFF7D9FD8046FFF7D6FD6F
:100A10008146FFF7D3FD8246FFF7D0FD0DE0FFF7DB
:100A2000C5FD0746FFF7C2FD8046FFF7BFFD8146C3
:100A3000FFF7BCFD8246FFF7B9FD06FB09F96168C7
:100A400089007743B7FBF1F206FB08F7B7FBF1F338
:100A5000B9FBF1F7B7FBF5F705FB17331B01323391
:100A6000B3FBF5F3B2FBF5F203F0F00303EB021373
:100A700006FB0AF74643B7FBF1F2B6FBF1F064213F
:100A8000B0FBF1F005FB10252D0132356420B5FBDC
:100A9000F0F0216800F00F00C3188B60BDE8F0870C
:100AA00000000000F3E9FFFF0038014080B568480E
:100AB000684900F011F818B1BDE8044048211AE077
:100AC00001BD80B56448654900F006F818B1BDE87D
:100AD00004405B210FE001BD01604FF4E131416052
:100AE00000218160C16001610C21416100218161AF
:100AF000C161FFF71BBE0FF2781000F03BBB2DE980
:100B0000F841044685B02068524A554D0FF26018EE
:100B1000544F554E554990423FD1086840F48040AB
:100B200008600222096801F4804104914FF40071C9
:100B300000F084F84FF4806000F078F805F11400BC
:100B4000386000207860B8608020F860002038614C
:100B50007861B861F861384600F0A4F810B18621D8
:100B600000F061F810206763B8647C620020F864CC
:100B70007D648020386500207865B865F865386642
:100B800007F1440000F08EF810B1962100F04BF808
:100B900007F144002063BC6642E0304A90423FD1F6
:100BA000486840F4003048600222486800F4003091
:100BB0000490042100F042F8082000F037F807F113
:100BC000880605F12800306000207060B060802049
:100BD000F060002030617061B061F061304600F07B
:100BE00061F810B1C12100F01EF86663746205F16E
:100BF0003C00706407F1CC051020B0640020F06464
:100C00008020306500207065B065F065306628464C
:100C100000F048F810B1D12100F005F82563B46662
:100C200006B0BDE8F081404600F0A4BA0021009073
:100C3000019102913046694600F09EBA04980091F5
:100C40000320039001926946304600F095BA0000F7
:100C500030020020003801407002002000440040B3
:100C60004400024004000020000801401810024027
:100C7000453A5C55736572735C626572747A5C4464
:100C80006F63756D656E74735C4769744875625CFB
:100C9000445376312E345C5372635C7573617274A5
:100CA0002E63000030B508B9012030BD0268DFF8BE
:100CB0000C138A4200F1280306D2DFF8041300F077
:100CC0002DF8DFF8001305E0DFF8FC1200F026F83D
:100CD000DFF8F8125961022180F821101468416888
:100CE0006FF30D140C4381680C43C1680C43016918
:100CF0000C4341690C4381690C43C1690C43146086
:100D00000021196059609960D9601961012180F84A
:100D10002110002180F82010002030BD8C181425EF
:100D2000B4FBF5F4A4009C617047F8B590F821205D
:100D30000024022A00F1340103D004204860012479
:100D40005FE00268DFF88862136823F00E03136027
:100D50004FF48077026815686D086D0015604FF4D8
:100D600080320368B3424FF4805519D9DFF84C62E2
:100D7000B34208BF012210D0DFF85862B34208BF67
:100D800010220AD0DFF85062B34208BF3A4604D0BE
:100D9000DFF84862B34208BF2A46DFF8443227E052
:100DA000DFF840C263451CD0DFF83CC263451AD06F
:100DB000DFF838C2634518D0DFF83472BB420EBF8B
:100DC0002A46DFF83052AB4210D0DFF82C52AB424B
:100DD00008BF4FF4801209D0B34207D14FF08072A0
:100DE00004E0012202E0102200E03A46DFF80C3273
:100DF0001A60012280F8212080F82040096801B1A2
:100E000088472046F2BD2DE9F84F00F1280204275B
:100E10005169744BD1F800E004686D492568966902
:100E2000DFF8BC81DFF8B491DFF8ACA1DFF8A4B142
:100E3000DFF888C1B7401EEA070F4AD06F0748D5D0
:100E40002568AD0603D4256825F0040525604FF418
:100E5000802407688F424FF480454FF4806611D993
:100E6000674508BF04240AD05F4508BF402406D068
:100E7000574508BF344602D04F4508BF2C46C8F836
:100E8000004020E09F4217D0574B9F4216D0574B4F
:100E90009F4215D0564B9F420EBF2C46554B9F424A
:100EA0000FD0554B9F4208BF4FF4800409D08F42AA
:100EB00007D14FF0806404E0042402E0402400E005
:100EC00034464E490C605168002974D0BDE8F44F97
:100ED00008470227B7401EEA070F4FD0AF074DD58E
:100EE0002568AD0606D4256825F00A05256001248D
:100EF00080F821404FF4003407688F424FF40055CA
:100F00004FF4007611D9674508BF02240AD05F4527
:100F100008BF202406D0574508BF344602D04F45AD
:100F200008BF2C46C8F8004020E09F4217D02E4B47
:100F30009F4216D02D4B9F4215D02D4B9F420EBF86
:100F40002C462C4B9F420FD02B4B9F4208BF4FF497
:100F5000001409D08F4207D14FF0007404E002243E
:100F600002E0202400E0344624490C60002180F88F
:100F700020101168F9B1BDE8F44F0847082101FAC3
:100F800006F61EEA060F16D0290714D5216821F0AF
:100F90000E012160012391698B4051694B6001234F
:100FA0000021136180F8201080F82130916811B180
:100FB000BDE8F44F0847BDE8F18F00000804024087
:100FC000F8FFFDBF00000240F8FBFDBF0004024037
:100FD000800002401C0402403004024044040240ED
:100FE00004040240080002401C000240300002409D
:100FF00044000240580002406C00024004000240DD
:10100000704770477047000080B500F0A9F900F004
:101010006DF800F0B7F900F01BFAFFF747FDFFF796
:1010200050FD00F025FA00F0B9FA00F027FB00F0BF
:1010300045FB002200211E20FFF720FB1E20FFF7AA
:101040003AFB002200213220FFF718FB3220FFF785
:1010500032FB002200212520FFF710FB2520FFF79F
:101060002AFB002200212620FFF708FB2620FFF79D
:1010700022FB002200210B20FFF700FB0B20FFF7D3
:101080001AFB002200210E20FFF7F8FA0E20FFF7CE
:1010900012FB002200210F20FFF7F0FA0F20FFF7CC
:1010A0000AFB002200211020FFF7E8FA1020FFF7CA
:1010B00002FB002200211120FFF7E0FA1120FFF7C8
:1010C000FAFA002200211220FFF7D8FA1220FFF7C7
:1010D000F2FA044800F079FB034800F076FB00F0D8
:1010E0001DFDFCE7B0010020F001002000B500214B
:1010F00095B001200D910B90022112914FF4803098
:101100000C90012213904FF4E0110F9214910BA850
:10111000FFF70EF800B1FEE70F21022000910190C9
:1011200000214FF4806002910390049168460221EF
:10113000FFF78CF900B1FEE7022005904FF4004163
:10114000079105A800F02CFD00B1FEE7FFF72BFA90
:101150004FF47A71B0FBF1F0FFF7B7FA0420FFF714
:10116000C8FA002200214FF0FF30FFF787FA15B0D0
:1011700000BD7047FEE700002DE9F84F83460F469B
:10118000002080466749684A684B4FF00F094FF0CE
:10119000010A3C680AFA08F606EA040EB64540F071
:1011A000AE807C683CB3012C1AD0022C1DD0032CDD
:1011B0002ED0112C16D0122C1AD05D4DAC421CBF73
:1011C0005C4DAC4217D05C4DAC421CBF5B4DAC4299
:1011D00011D05B4DAC421CBF5A4DAC420BD018E055
:1011E000F86816E0F868001D13E0F868083010E0B1
:1011F000F8680C300DE0B86808B9042009E001284F
:1012000019BF0820CBF814600820CBF8106000E06C
:101210000020BEF5807F03D2DC464FEA880404E05C
:10122000A8F108040BF1040CA400DCF8005009FA42
:1012300004F6B54300FA04F42C43CCF800407C6873
:10124000E4005CD51C6844F001041C604FEA980C73
:101250001D6805F001050095009C52F82C604FEACE
:10126000880404F00C0409FA04F526EA0505364E54
:10127000B34508BF002618D0344EB34508BF012639
:1012800013D0334EB34508BF02260ED0314EB345BE
:1012900008BF032609D0304EB34508BF042604D04A
:1012A0002E4EB3450CBF0526062606FA04F42C4341
:1012B00042F82C406FEA0E067C68E50304D50D6801
:1012C0004EEA05050D6002E00C6834400C607C6855
:1012D000A5034C684CBF4EEA040434404C607C6863
:1012E000E5028C684CBF4EEA040434408C607C6894
:1012F000A502CC684CBF4EEA04043440CC6008F12F
:101300000108B8F10F0F7FF644AFBDE8F18F81B04F
:1013100002B90904016101B07047C2685140C1605F
:10132000704700000004014008000140181002400E
:101330000000111000001210000021100000221007
:10134000000031100000321000080140000C014084
:10135000001001400014014000180140001C014031
:1013600080B50748016841F0100101600320FFF7D4
:1013700078F90020FFF752F900F086FC002002BD4A
:1013800000200240F0B52E482E4C2F4E85B001684B
:1013900041F01001016042F24207026802F01002BF
:1013A000049243F260250499016841F02001016034
:1013B000026802F0200204920499016841F00401DD
:1013C0000160026802F0040204920022049901689C
:1013D00041F0080101603946006800F008000490FF
:1013E00004982046FFF793FF002229463046FFF776
:1013F0008EFF01200221019003910097694620464B
:10140000FFF7BAFE02200021009001910291694687
:101410000E48FFF7B1FE10200021009001910291CB
:1014200020466946FFF7A8FE0120022101900391A2
:10143000009569463046FFF79FFE05B0F0BD00BF3E
:101440001810024000100140000C0140000801404B
:10145000064881B0016841F001010160006800F0B8
:1014600001000090009801B0704700BF14100240C6
:101470003EB5374C37480FF2F00520604FF48070CE
:10148000A0600020E06060614FF46020E061002017
:10149000606002202061204600F03CFC18B145212C
:1014A0002846FFF767FE0C200090012107200191DC
:1014B00002906946204600F02DFD18B14F212846C4
:1014C000FFF758FE10200221009001912046694646
:1014D00000F020FD18B158212846FFF74BFE37BD1C
:1014E00030B5044685B020681A4988422ED11A4882
:1014F0001A4D016841F4007101600421006800F494
:10150000007000900322009815480191029201A9F1
:10151000FFF732FE00206860A8608020E8604FF48A
:10152000007028614FF4006068612020A8610020ED
:101530000C49E86129602846FFF7B4FB20B17C2103
:101540000FF22400FFF716FE25626C6205B030BD75
:10155000B002002000240140181002406C0100205D
:101560000010014008000240453A5C5573657273F3
:101570005C626572747A5C446F63756D656E7473DA
:101580005C4769744875625C445376312E345C5311
:1015900072635C6164632E630000000080B52648BE
:1015A000264901604FF482714160002181604FF44F
:1015B0000061C16002210161012141614FF40071AC
:1015C00081611021C16100210162416281620A21B1
:1015D000C16200F04DFD30B1BDE8044045210FF27D
:1015E0006800FFF7C7BD01BD00681449884200D0FC
:1015F000704718B51248134C85B0016841F480510A
:101600000160A021006800F4805000900222009840
:10161000019103200490029201A92046FFF7ACFD3E
:1016200040200021019002910391204601A9FFF77B
:10163000A3FD06B010BD00001401002000300140E1
:101640001810024000080140453A5C5573657273FA
:101650005C626572747A5C446F63756D656E7473F9
:101660005C4769744875625C445376312E345C5330
:1016700072635C7370692E63000000003A4838B5ED
:101680003A4C0FF2F805206086B0472060600020D9
:10169000A060632000F03DF810B1402100F036F862
:1016A00000F02DF810B1462100F030F800F038F8C5
:1016B00010B14D2100F02AF807B030BD2C4838B5E4
:1016C0002C4C0FF2B805206086B0472060600020E7
:1016D000A06040F2E73000F01CF810B15F2100F08C
:1016E00015F800F00CF810B1652100F00FF800F0CB
:1016F00017F810B16C2100F009F807B030BD4FF4B5
:101700008050029002A9204600F020B92846FFF739
:1017100031BDE06000202061A061204600F048B8A3
:101720000020009001906946204600F0E3BC81B0A3
:1017300000680D4A1049904207D1086840F0040043
:101740000860096801F0040109E0094A904208D1E3
:10175000086840F008000860096801F0080100917D
:10176000009801B07047000000080040B001002060
:10177000000C0040F00100201C100240453A5C556E
:10178000736572735C626572747A5C446F63756DC5
:10179000656E74735C4769744875625C4453763156
:1017A0002E345C5372635C74696D2E63000000001C
:1017B00038B5040001D1012032BD00F01FF818B97E
:1017C00000F018F8FFF7B3FF0AE00068C16841F0C5
:1017D0000101C160026842F001020260002070470E
:1017E00002206870211D206800F01BF9012068703C
:1017F000002032BD002129702046704704F13C05CD
:101800006878704710B50446206801698A0715D5C5
:10181000C1688A0712D56FF00202026101212177A7
:10182000806910F0030F204602D000F088FC03E02E
:1018300000F086FC00F087F800202077206801691E
:101840004A0715D5C1684A0712D56FF00402026134
:1018500002212177806910F4407F204602D000F0F9
:101860006EFC03E000F06CFC00F06DF800202077C7
:10187000206801690A0715D5C1680A0712D56FF0FB
:101880000802026104212177C06910F0030F20468D
:1018900002D000F054FC03E000F052FC00F053F8DA
:1018A0000020207720680169CA0615D5C168CA06DC
:1018B00012D56FF01002026108212177C06910F47F
:1018C000407F204602D000F03AFC03E000F038FCF4
:1018D00000F039F80020207720680169CA0708D590
:1018E000C168CA0705D56FF0010202612046FFF703
:1018F00040FC206801690A0608D5C1680A0605D5BA
:101900006FF080020261204600F01BFC2068016934
:101910004A0608D5C1684A0605D56FF04002026143
:10192000204600F00FFC206801698A060AD5C168CC
:101930008A0607D56FF0200202612046BDE81040FC
:1019400000F001BC10BD204600F0FEBB38B500F031
:101950005DF801D1022032BD0122227002206070A8
:101960002A68DFF834019368034093600868002810
:1019700037D0102837D0202837D0302837D040280B
:101980002BD050281ED0602820D070280BD0B0F566
:10199000805F03D0B0F5005F0CD02CE02868816830
:1019A000C908C9000CE000F028F82868816841F0F7
:1019B000770105E000F021F82868816841F4804152
:1019C000816018E000F01EF8502111E0CA684968F3
:1019D000286800F07CF860210AE000F013F840214C
:1019E00006E0002104E0102102E0202100E0302187
:1019F000286800F07EF80FE00000CB684A6889682C
:101A000028687EE0CA684968286851E0054605F103
:101A10003C0420780128704701206070002020706D
:101A200032BDF0B5DFF874C01D4F03681D4C1E4D6C
:101A30001E4E604518BFB84208D0B0F1804F18BFA5
:101A4000B04203D0A84218BFA0420DD14A6823F08B
:101A500070031343604518BFB84207D0B0F1804F00
:101A60001CBFB042A84201D0A04203D1CA6823F4EF
:101A7000407313434A6923F08003134303606045B6
:101A80008A68C2620A68826212BFB8420969016349
:101A900001214161F0BD00008800FFFF002C0140E2
:101AA00000340140000C00400008004000040040E9
:101AB00010B5036A046A64086400046223F00A0330
:101AC000846924F0F00444EA0214846123E010B530
:101AD000036A23F0100303628369046A23F47043EA
:101AE00043EA023324F0A004836144EA011404624F
:101AF00010BD826822F07002114341F0070181603D
:101B0000704710B5846824F47F442143114341EAAF
:101B10000321816010BD1943016210BD10B50F2073
:101B200000F013FB184C4FF400712046FFF7F5FB53
:101B300000F032F84FF400511448FFF7EEFB00F0CC
:101B40002BF84FF400512046FFF7E7FB00F024F894
:101B50004FF480512046FFF7E0FB00F01DF8002213
:101B600000F016F80122202100F013F80F2000F0F9
:101B7000ECFA012200F00CF82046BDE810400022EB
:101B80002021FFF7C4BB0000000C01400010014001
:101B900040212046FFF7BBBB052000F0D6BA00006D
:101BA0002DE9FC410646354D3078C10750D5A8696E
:101BB0000024C10009D4A86940F08050A861012424
:101BC000A86900F08050009000982D4F3968C80532
:101BD00017D4386840F480703860FEF719FD8046ED
:101BE0003968C8050DD4FEF713FDA0EB0800652881
:101BF000F6D303203FE0FEF70BFDC01B404519D391
:101C0000F7E7E86910F440701EBF716801F4407195
:101C1000884212D01B49E86901220A6020F4407012
:101C200000220A60E861C00707D5FEF7F1FC07460D
:101C300041F28938E8698107DDD5E969706821F4E6
:101C400040710143E9611CB1A86920F08050A8618E
:101C50003178880705D52A68B06822F440420243EB
:101C60002A603078C10605D52968706921F48001A1
:101C7000014329600020BDE8F68100000410024005
:101C8000007000404004424280B52048016841F0A5
:101C900001010160006800F001000090009803203D
:101CA000FEF7DFFC002200216FF00B00FEF7E6FCE0
:101CB000002200216FF00A00FEF7E0FC0022002164
:101CC0006FF00900FEF7DAFC002200216FF004003B
:101CD000FEF7D4FC002200216FF00300FEF7CEFCDB
:101CE000002200216FF00100FEF7C8FC0022002155
:101CF0004FF0FF30FEF7C2FC0548016821F0E061BB
:101D00000160026842F00072026001BD18100240DA
:101D100004000140F8B5044600270026002C7AD0C4
:101D200004F12405686820B9AE6028702046FFF7EA
:101D3000D7FB204600F07AF96968CA066CD4010026
:101D40006AD1696821F4885141F002016960236811
:101D5000DFF8BC12E269D4F804C08B4204BFB2F5CC
:101D6000402F4FF40022E16842EA0C02D4F808C088
:101D7000BCF5807F14BFBCF1010F4FF48077D4F81D
:101D800014C0BCF1010F42EA41020FD131B9A1697F
:101D9000491E490341F400610F4307E0696841F0BF
:101DA00020016960A96841F00101A960596821F426
:101DB00069410F435F602368DFF858129F680F4046
:101DC00017439F60A168B1F5807F18BF012902D138
:101DD0002669761E36052168CB6A23F470031E43FC
:101DE000CE622468DFF83012A3680B40934208D11A
:101DF0000021A960696821F0020141F001016960D8
:101E0000F2BD686820F0020040F010006860A86829
:101E100040F00100A86003E0686840F010006860CE
:101E20000120F2BD10B5044621684868820622D51B
:101E30000A6890071FD5A06AC20603D4A06A40F4BE
:101E40000070A06200F05AF804BFE06800280BD1CF
:101E50004A6822F020024A60A06A20F48070A062E2
:101E6000A06AC10400F050F8204600F07DF9216816
:101E70006FF0120008602168486802062BD50A68D6
:101E8000500728D5A06AC20603D4A06A40F40050C7
:101E9000A062886800F4E040B0F5E04F08D04868E0
:101EA000420511D400F02AF804BFE06800280BD1E5
:101EB0004A6822F080024A60A06A20F48050A06242
:101EC000A06AC10500F020F8204600F04FF9216813
:101ED0006FF00C000860206841684A060DD5006864
:101EE000C1070AD5A06A40F48030A062204600F005
:101EF0003EF921686FF00100086010BD886800F4A9
:101F00006020B0F5602F704703D4A06A40F0010054
:101F1000A0627047F8B50A46002100F12403009141
:101F20001C78012C01D10220F2BD01251D701F2754
:101F3000546815680668072C08D2641E04EB8404F4
:101F4000D6F834C000F05EF8756312E00D2C08D2AC
:101F5000E41F04EB8404D6F830C000F053F8356376
:101F600007E00D3C04EB8404D6F82CC000F04AF8DE
:101F7000F56207271668946805680A2E08D30A3E9A
:101F800006EB4606D5F80CC000F036F8EC6006E02B
:101F900006EB4606D5F810C000F02EF82C61146848
:101FA000102C18BF112C23D100681D4CA0421AD14F
:101FB0001C48046825021BD4056845F4000505602B
:101FC0001068102814D1154C17482568B5FBF0F09F
:101FD0000A2250430090009800281EBF009A521E0B
:101FE0000092F8D104E00121586840F020005860C8
:101FF000002018700846F2BDB7402CEA0707B4402D
:102000003C437047A7402CEA0707A5403D43704773
:10201000003C0140FDF7E1FFFE0E1FFF0000002025
:10202000002401400824014040420F0038B5044616
:1020300020688168CA0719D581684908490081600C
:10204000FEF7E6FA054620688168C8070ED5FEF758
:10205000DFFA401B0328F6D3A06A40F01000A0620C
:10206000E06A40F00100E062012032BD002032BD94
:1020700010B5040001D1012010BD0020A06294F829
:10208000510010B92046FFF7AFFA022184F8511031
:102090002068016821F0400101606268A068A169C0
:1020A0000243E0680243206902436069024301F48D
:1020B0000071E0690A430243206A0243A06A0243B6
:1020C00020680260A169606A090C01F00401014303
:1020D000206841602068E16A01612068C16921F4DB
:1020E0000061C16100206065012084F8510000207A
:1020F00010BD000030B500F13C031A78012A01D16F
:10210000022030BD01241C7002225A7002685468FB
:1021100024F070045460046865680A6815436560BB
:102120000268946824F080049460026894684868A7
:1021300004439460012058700020187030BD70472F
:102140007047704770477047704731B5FEF760FAC7
:10215000009D15F1010F044618BF6D1CFEF758FADB
:10216000001BA842FAD331BD70470000704770478A
:102170007047FEE7FEE7FEE7FEE7704770477047EF
:1021800080B500F037F8BDE80140FEF7CBBA0F4844
:10219000FEF739BE0E48FEF736BE0E48FEF733BED8
:1021A0000D48FEF730BE0D48FEF72DBE0C48FFF778
:1021B00039BE0C48FFF726BB0B48FEF7F9BA0B48AF
:1021C000FEF7F6BA0A48FFF71DBB00006C010020BD
:1021D00048000020040000208C000020D0000020D7
:1021E000B0020020B0010020300200207002002068
:1021F000F001002002480168491C0160704700BFDF
:10220000E00200200E49086840F0010008604A68BA
:102210000C4802404A600B680B4803400B6008689A
:1022200020F4802008604FF41F004A6822F4FE0268
:102230004A6088604FF00060044908607047000001
:10224000001002400000FFF8FFFFF6FE08ED00E07E
:102250000000000000000000010203040607080956
:1022600019E050F8042BD30744BFA9F101039A18D1
:10227000091F0023042942F8043BF9D25FEA817C5C
:10228000134604D54FF0000CA2F800C09B1CC907F0
:1022900044BF0021197050F8041B0029E1D1704798
:1022A00010B450F8041B79B1026843680244083046
:1022B000DC0744BFA9F10104E31852F8044B43F8CA
:1022C000044B091FF9D1ECE710BC704710B5074962
:1022D00079441831064C7C44163404E00A68081D21
:1022E000114488470146A142F8D110BD0800000002
:1022F000280000006DFFFFFFE00200000400002046
:10230000000000009DFFFFFF0400000040010000EE
:10231000000000200000000000F00DF8002801D0AF
:10232000FFF7D4FFAFF300800020AFF30080FEF78B
:102330006BFE00F002F80120704700F001B80000C9
:102340000746384600F002F8FBE7000080B5AFF31F
:102350000080024A11001820ABBEFBE726000200F5
:102360000148804701480047052200087123000802
:10237000AFF30080AFF30080FFF7CEFF0000000056
:1023800001020304FFF7FEBFFFF7FEBFFFF7FEBF2A
:10239000FFF7FEBFFFF7FEBFFFF7FEBFFFF7FEBF71
:1023A000FFF7FEBFFFF7FEBFFFF7FEBFFFF7FEBF61
:1023B000FFF7FEBFFFF7FEBFFFF7FEBFFFF7FEBF51
:1023C000FFF7FEBFFFF7FEBFFFF7FEBFFFF7FEBF41
:1023D000FFF7FEBFFFF7FEBFFFF7FEBFFFF7FEBF31
:1023E000FFF7FEBFFFF7FEBFFFF7FEBFFFF7FEBF21
:1023F000FFF7FEBFFFF7FEBFFFF7FEBFFFF7FEBF11
:10240000FFF7FEBFFFF7FEBFFFF7FEBFFFF7FEBF00
:10241000FFF7FEBFFFF7FEBFFFF7FEBFFFF7FEBFF0
:10242000FFF7FEBFFFF7FEBFFFF7FEBFFFF7FEBFE0
:10243000FFF7FEBFFFF7FEBFFFF7FEBFFFF7FEBFD0
:10244000FFF7FEBFFFF7FEBFFFF7FEBF00A24A0483
:04000005080023715B
:00000001FF
